{
  "address": "0xCB1fd878F0a2c5196785380dA893dEC50068B74f",
  "abi": [
    {
      "inputs": [],
      "name": "GoalAlreadyReached",
      "type": "error"
    },
    {
      "inputs": [],
      "name": "GoalNotMet",
      "type": "error"
    },
    {
      "inputs": [],
      "name": "InvalidPledge",
      "type": "error"
    },
    {
      "inputs": [],
      "name": "InvalidProject",
      "type": "error"
    },
    {
      "inputs": [],
      "name": "NotAvailableForPledging",
      "type": "error"
    },
    {
      "inputs": [],
      "name": "NotOwner",
      "type": "error"
    },
    {
      "inputs": [],
      "name": "ProjectStillOpen",
      "type": "error"
    },
    {
      "inputs": [],
      "name": "StartedAlready",
      "type": "error"
    },
    {
      "inputs": [],
      "name": "TokenNotSupported",
      "type": "error"
    },
    {
      "anonymous": false,
      "inputs": [
        {
          "indexed": true,
          "internalType": "address",
          "name": "previousOwner",
          "type": "address"
        },
        {
          "indexed": true,
          "internalType": "address",
          "name": "newOwner",
          "type": "address"
        }
      ],
      "name": "OwnershipTransferred",
      "type": "event"
    },
    {
      "inputs": [
        {
          "internalType": "uint256",
          "name": "",
          "type": "uint256"
        },
        {
          "internalType": "uint256",
          "name": "",
          "type": "uint256"
        }
      ],
      "name": "backers",
      "outputs": [
        {
          "internalType": "address",
          "name": "backerAddress",
          "type": "address"
        },
        {
          "internalType": "address",
          "name": "tokenAddress",
          "type": "address"
        },
        {
          "internalType": "uint256",
          "name": "amount",
          "type": "uint256"
        }
      ],
      "stateMutability": "view",
      "type": "function"
    },
    {
      "inputs": [
        {
          "internalType": "uint256",
          "name": "_id",
          "type": "uint256"
        }
      ],
      "name": "claim",
      "outputs": [],
      "stateMutability": "nonpayable",
      "type": "function"
    },
    {
      "inputs": [
        {
          "internalType": "uint256",
          "name": "_id",
          "type": "uint256"
        }
      ],
      "name": "close",
      "outputs": [],
      "stateMutability": "nonpayable",
      "type": "function"
    },
    {
      "inputs": [
        {
          "internalType": "uint256",
          "name": "_id",
          "type": "uint256"
        }
      ],
      "name": "getBackers",
      "outputs": [
        {
          "components": [
            {
              "internalType": "address",
              "name": "backerAddress",
              "type": "address"
            },
            {
              "internalType": "address",
              "name": "tokenAddress",
              "type": "address"
            },
            {
              "internalType": "uint256",
              "name": "amount",
              "type": "uint256"
            }
          ],
          "internalType": "struct Crowdfund.BackerInfo[]",
          "name": "",
          "type": "tuple[]"
        }
      ],
      "stateMutability": "view",
      "type": "function"
    },
    {
      "inputs": [],
      "name": "getSupportedTokensAddress",
      "outputs": [
        {
          "internalType": "address[]",
          "name": "",
          "type": "address[]"
        }
      ],
      "stateMutability": "view",
      "type": "function"
    },
    {
      "inputs": [
        {
          "internalType": "uint256",
          "name": "_id",
          "type": "uint256"
        }
      ],
      "name": "getTotalAmountRaisedInDollars",
      "outputs": [
        {
          "internalType": "uint256",
          "name": "",
          "type": "uint256"
        }
      ],
      "stateMutability": "view",
      "type": "function"
    },
    {
      "inputs": [
        {
          "internalType": "uint256",
          "name": "startDay",
          "type": "uint256"
        },
        {
          "internalType": "uint256",
          "name": "duration",
          "type": "uint256"
        },
        {
          "internalType": "uint256",
          "name": "goal",
          "type": "uint256"
        }
      ],
      "name": "launch",
      "outputs": [],
      "stateMutability": "nonpayable",
      "type": "function"
    },
    {
      "inputs": [],
      "name": "owner",
      "outputs": [
        {
          "internalType": "address",
          "name": "",
          "type": "address"
        }
      ],
      "stateMutability": "view",
      "type": "function"
    },
    {
      "inputs": [
        {
          "internalType": "uint256",
          "name": "_id",
          "type": "uint256"
        },
        {
          "internalType": "address",
          "name": "tokenAddress",
          "type": "address"
        },
        {
          "internalType": "uint256",
          "name": "amount",
          "type": "uint256"
        }
      ],
      "name": "pledge",
      "outputs": [],
      "stateMutability": "nonpayable",
      "type": "function"
    },
    {
      "inputs": [
        {
          "internalType": "uint256",
          "name": "",
          "type": "uint256"
        }
      ],
      "name": "projects",
      "outputs": [
        {
          "internalType": "address",
          "name": "owner",
          "type": "address"
        },
        {
          "internalType": "uint256",
          "name": "id",
          "type": "uint256"
        },
        {
          "internalType": "uint256",
          "name": "startDay",
          "type": "uint256"
        },
        {
          "internalType": "uint256",
          "name": "endDay",
          "type": "uint256"
        },
        {
          "internalType": "uint256",
          "name": "goal",
          "type": "uint256"
        }
      ],
      "stateMutability": "view",
      "type": "function"
    },
    {
      "inputs": [
        {
          "internalType": "uint256",
          "name": "_id",
          "type": "uint256"
        }
      ],
      "name": "refund",
      "outputs": [],
      "stateMutability": "nonpayable",
      "type": "function"
    },
    {
      "inputs": [],
      "name": "renounceOwnership",
      "outputs": [],
      "stateMutability": "nonpayable",
      "type": "function"
    },
    {
      "inputs": [
        {
          "internalType": "address[]",
          "name": "tokensAddress",
          "type": "address[]"
        }
      ],
      "name": "setSupportedTokensAddress",
      "outputs": [],
      "stateMutability": "nonpayable",
      "type": "function"
    },
    {
      "inputs": [
        {
          "internalType": "address",
          "name": "tokenAddress",
          "type": "address"
        },
        {
          "internalType": "address",
          "name": "priceFeed",
          "type": "address"
        }
      ],
      "name": "setTokenToPriceFeed",
      "outputs": [],
      "stateMutability": "nonpayable",
      "type": "function"
    },
    {
      "inputs": [
        {
          "internalType": "uint256",
          "name": "",
          "type": "uint256"
        }
      ],
      "name": "supportedTokensAddress",
      "outputs": [
        {
          "internalType": "address",
          "name": "",
          "type": "address"
        }
      ],
      "stateMutability": "view",
      "type": "function"
    },
    {
      "inputs": [
        {
          "internalType": "address",
          "name": "",
          "type": "address"
        }
      ],
      "name": "tokenToPriceFeed",
      "outputs": [
        {
          "internalType": "address",
          "name": "",
          "type": "address"
        }
      ],
      "stateMutability": "view",
      "type": "function"
    },
    {
      "inputs": [
        {
          "internalType": "address",
          "name": "newOwner",
          "type": "address"
        }
      ],
      "name": "transferOwnership",
      "outputs": [],
      "stateMutability": "nonpayable",
      "type": "function"
    },
    {
      "inputs": [
        {
          "internalType": "uint256",
          "name": "_id",
          "type": "uint256"
        },
        {
          "internalType": "address",
          "name": "tokenAddress",
          "type": "address"
        },
        {
          "internalType": "uint256",
          "name": "amount",
          "type": "uint256"
        }
      ],
      "name": "unpledge",
      "outputs": [],
      "stateMutability": "nonpayable",
      "type": "function"
    }
  ],
  "transactionHash": "0x6823c33d2355379287c0d7046c7ee3b78f1e2f0549e14683e46ac949ac9ddeee",
  "args": [],
  "numDeployments": 1,
  "solcInputHash": "d9dc2e62e9394ba7d8070acbbf96ca0b",
  "bytecode": "0x60806040523480156200001157600080fd5b5060016000819055506200003a6200002e6200004060201b60201c565b6200004860201b60201c565b6200010e565b600033905090565b6000600160009054906101000a900473ffffffffffffffffffffffffffffffffffffffff16905081600160006101000a81548173ffffffffffffffffffffffffffffffffffffffff021916908373ffffffffffffffffffffffffffffffffffffffff1602179055508173ffffffffffffffffffffffffffffffffffffffff168173ffffffffffffffffffffffffffffffffffffffff167f8be0079c531659141344cd1fd0a4f28419497f9722a3daafe3b4186f6b6457e060405160405180910390a35050565b613a0f806200011e6000396000f3fe608060405234801561001057600080fd5b50600436106101165760003560e01c80638736c179116100a2578063c344753a11610071578063c344753a146102cf578063c374efde146102ff578063c9168b721461031b578063cad623861461034b578063f2fde38b1461036757610116565b80638736c179146102335780638a18362c1461024f5780638da5cb5b14610281578063bf2c813c1461029f57610116565b80635a992514116100e95780635a992514146101a3578063715018a6146101c15780638078f22c146101cb5780638304669a146101fb5780638533879b1461021757610116565b80630aebeb4e1461011b578063107046bd14610137578063278ecde11461016b578063379607f514610187575b600080fd5b61013560048036038101906101309190612937565b610383565b005b610151600480360381019061014c9190612937565b61052a565b6040516101629594939291906129b4565b60405180910390f35b61018560048036038101906101809190612937565b610580565b005b6101a1600480360381019061019c9190612937565b610ade565b005b6101ab61107e565b6040516101b89190612ac5565b60405180910390f35b6101c961110c565b005b6101e560048036038101906101e09190612b13565b611120565b6040516101f29190612b40565b60405180910390f35b61021560048036038101906102109190612b5b565b611153565b005b610231600480360381019061022c9190612bae565b611570565b005b61024d60048036038101906102489190612bee565b6115fa565b005b61026960048036038101906102649190612c41565b6116ee565b60405161027893929190612c81565b60405180910390f35b610289611775565b6040516102969190612b40565b60405180910390f35b6102b960048036038101906102b49190612937565b61179f565b6040516102c69190612b40565b60405180910390f35b6102e960048036038101906102e49190612937565b6117de565b6040516102f69190612cb8565b60405180910390f35b61031960048036038101906103149190612e2c565b611987565b005b61033560048036038101906103309190612937565b611a4d565b6040516103429190612f75565b60405180910390f35b61036560048036038101906103609190612b5b565b611b75565b005b610381600480360381019061037c9190612b13565b6120c3565b005b6000600360008381526020019081526020016000206040518060a00160405290816000820160009054906101000a900473ffffffffffffffffffffffffffffffffffffffff1673ffffffffffffffffffffffffffffffffffffffff1673ffffffffffffffffffffffffffffffffffffffff1681526020016001820154815260200160028201548152602001600382015481526020016004820154815250509050806000015173ffffffffffffffffffffffffffffffffffffffff163373ffffffffffffffffffffffffffffffffffffffff161461048c576040517f30cd747100000000000000000000000000000000000000000000000000000000815260040160405180910390fd5b428160400151116104c9576040517fe773459600000000000000000000000000000000000000000000000000000000815260040160405180910390fd5b60036000838152602001908152602001600020600080820160006101000a81549073ffffffffffffffffffffffffffffffffffffffff0219169055600182016000905560028201600090556003820160009055600482016000905550505050565b60036020528060005260406000206000915090508060000160009054906101000a900473ffffffffffffffffffffffffffffffffffffffff16908060010154908060020154908060030154908060040154905085565b600260005414156105c6576040517f08c379a00000000000000000000000000000000000000000000000000000000081526004016105bd90612ff4565b60405180910390fd5b60026000819055506000600360008381526020019081526020016000206040518060a00160405290816000820160009054906101000a900473ffffffffffffffffffffffffffffffffffffffff1673ffffffffffffffffffffffffffffffffffffffff1673ffffffffffffffffffffffffffffffffffffffff16815260200160018201548152602001600282015481526020016003820154815260200160048201548152505090506000610679836117de565b905081606001514210156106b9576040517fcc8aacf000000000000000000000000000000000000000000000000000000000815260040160405180910390fd5b816080015181106106f6576040517f8cb8251e00000000000000000000000000000000000000000000000000000000815260040160405180910390fd5b600060046000858152602001908152602001600020805480602002602001604051908101604052809291908181526020016000905b8282101561081357838290600052602060002090600302016040518060600160405290816000820160009054906101000a900473ffffffffffffffffffffffffffffffffffffffff1673ffffffffffffffffffffffffffffffffffffffff1673ffffffffffffffffffffffffffffffffffffffff1681526020016001820160009054906101000a900473ffffffffffffffffffffffffffffffffffffffff1673ffffffffffffffffffffffffffffffffffffffff1673ffffffffffffffffffffffffffffffffffffffff1681526020016002820154815250508152602001906001019061072b565b50505050905060005b8151811015610acf57600082828151811061083a57610839613014565b5b6020026020010151905060008160200151905073ae13d989dac2f0debff460ac112a837c89baa7cd73ffffffffffffffffffffffffffffffffffffffff168173ffffffffffffffffffffffffffffffffffffffff1614156109d25773ae13d989dac2f0debff460ac112a837c89baa7cd73ffffffffffffffffffffffffffffffffffffffff16632e1a7d4d83604001516040518263ffffffff1660e01b81526004016108e69190612cb8565b600060405180830381600087803b15801561090057600080fd5b505af1158015610914573d6000803e3d6000fd5b505050506000826000015173ffffffffffffffffffffffffffffffffffffffff16836040015160405161094690613074565b60006040518083038185875af1925050503d8060008114610983576040519150601f19603f3d011682016040523d82523d6000602084013e610988565b606091505b50509050806109cc576040517f08c379a00000000000000000000000000000000000000000000000000000000081526004016109c3906130d5565b60405180910390fd5b50610a69565b8073ffffffffffffffffffffffffffffffffffffffff1663a9059cbb836000015184604001516040518363ffffffff1660e01b8152600401610a159291906130f5565b602060405180830381600087803b158015610a2f57600080fd5b505af1158015610a43573d6000803e3d6000fd5b505050506040513d601f19601f82011682018060405250810190610a679190613156565b505b8160400151600460008981526020019081526020016000208481548110610a9357610a92613014565b5b90600052602060002090600302016002016000828254610ab391906131b2565b9250508190555050508080610ac7906131e6565b91505061081c565b50505050600160008190555050565b60026000541415610b24576040517f08c379a0000000000000000000000000000000000000000000000000000000008152600401610b1b90612ff4565b60405180910390fd5b60026000819055503373ffffffffffffffffffffffffffffffffffffffff166003600083815260200190815260200160002060000160009054906101000a900473ffffffffffffffffffffffffffffffffffffffff1673ffffffffffffffffffffffffffffffffffffffff1614610bd0576040517f08c379a0000000000000000000000000000000000000000000000000000000008152600401610bc79061327b565b60405180910390fd5b600060046000838152602001908152602001600020805480602002602001604051908101604052809291908181526020016000905b82821015610ced57838290600052602060002090600302016040518060600160405290816000820160009054906101000a900473ffffffffffffffffffffffffffffffffffffffff1673ffffffffffffffffffffffffffffffffffffffff1673ffffffffffffffffffffffffffffffffffffffff1681526020016001820160009054906101000a900473ffffffffffffffffffffffffffffffffffffffff1673ffffffffffffffffffffffffffffffffffffffff1673ffffffffffffffffffffffffffffffffffffffff16815260200160028201548152505081526020019060010190610c05565b5050505090506000610cfe836117de565b9050610d226040518060600160405280602c81526020016139ae602c913982612147565b6003600084815260200190815260200160002060030154421015610d72576040517fcc8aacf000000000000000000000000000000000000000000000000000000000815260040160405180910390fd5b6003600084815260200190815260200160002060040154811015610dc2576040517f115bddd400000000000000000000000000000000000000000000000000000000815260040160405180910390fd5b60005b8251811015611070576000838281518110610de357610de2613014565b5b6020026020010151905060008160200151905073ae13d989dac2f0debff460ac112a837c89baa7cd73ffffffffffffffffffffffffffffffffffffffff168173ffffffffffffffffffffffffffffffffffffffff161415610f775773ae13d989dac2f0debff460ac112a837c89baa7cd73ffffffffffffffffffffffffffffffffffffffff16632e1a7d4d83604001516040518263ffffffff1660e01b8152600401610e8f9190612cb8565b600060405180830381600087803b158015610ea957600080fd5b505af1158015610ebd573d6000803e3d6000fd5b5050505060003373ffffffffffffffffffffffffffffffffffffffff168360400151604051610eeb90613074565b60006040518083038185875af1925050503d8060008114610f28576040519150601f19603f3d011682016040523d82523d6000602084013e610f2d565b606091505b5050905080610f71576040517f08c379a0000000000000000000000000000000000000000000000000000000008152600401610f68906130d5565b60405180910390fd5b5061100a565b8073ffffffffffffffffffffffffffffffffffffffff1663a9059cbb3384604001516040518363ffffffff1660e01b8152600401610fb69291906130f5565b602060405180830381600087803b158015610fd057600080fd5b505af1158015610fe4573d6000803e3d6000fd5b505050506040513d601f19601f820116820180604052508101906110089190613156565b505b816040015160046000888152602001908152602001600020848154811061103457611033613014565b5b9060005260206000209060030201600201600082825461105491906131b2565b9250508190555050508080611068906131e6565b915050610dc5565b505050600160008190555050565b6060600680548060200260200160405190810160405280929190818152602001828054801561110257602002820191906000526020600020905b8160009054906101000a900473ffffffffffffffffffffffffffffffffffffffff1673ffffffffffffffffffffffffffffffffffffffff16815260200190600101908083116110b8575b5050505050905090565b6111146121e3565b61111e6000612261565b565b60056020528060005260406000206000915054906101000a900473ffffffffffffffffffffffffffffffffffffffff1681565b60026000541415611199576040517f08c379a000000000000000000000000000000000000000000000000000000000815260040161119090612ff4565b60405180910390fd5b60026000819055506000600360008581526020019081526020016000206040518060a00160405290816000820160009054906101000a900473ffffffffffffffffffffffffffffffffffffffff1673ffffffffffffffffffffffffffffffffffffffff1673ffffffffffffffffffffffffffffffffffffffff1681526020016001820154815260200160028201548152602001600382015481526020016004820154815250509050600073ffffffffffffffffffffffffffffffffffffffff16816000015173ffffffffffffffffffffffffffffffffffffffff1614156112ac576040517fbe8aa6fc00000000000000000000000000000000000000000000000000000000815260040160405180910390fd5b6112b583612327565b6112eb576040517f3dd1b30500000000000000000000000000000000000000000000000000000000815260040160405180910390fd5b806040015142101580156113025750806060015142105b611338576040517ff99a3eaf00000000000000000000000000000000000000000000000000000000815260040160405180910390fd5b60008390508073ffffffffffffffffffffffffffffffffffffffff166323b872dd3330866040518463ffffffff1660e01b815260040161137a93929190612c81565b602060405180830381600087803b15801561139457600080fd5b505af11580156113a8573d6000803e3d6000fd5b505050506040513d601f19601f820116820180604052508101906113cc9190613156565b5060006113d986866123dd565b9050600081121561150c57600060405180606001604052803373ffffffffffffffffffffffffffffffffffffffff1681526020018773ffffffffffffffffffffffffffffffffffffffff1681526020018681525090506004600088815260200190815260200160002081908060018154018082558091505060019003906000526020600020906003020160009091909190915060008201518160000160006101000a81548173ffffffffffffffffffffffffffffffffffffffff021916908373ffffffffffffffffffffffffffffffffffffffff16021790555060208201518160010160006101000a81548173ffffffffffffffffffffffffffffffffffffffff021916908373ffffffffffffffffffffffffffffffffffffffff16021790555060408201518160020155505050611560565b600060046000888152602001908152602001600020828154811061153357611532613014565b5b9060005260206000209060030201905084816002016000828254611557919061329b565b92505081905550505b5050506001600081905550505050565b6115786121e3565b80600560008473ffffffffffffffffffffffffffffffffffffffff1673ffffffffffffffffffffffffffffffffffffffff16815260200190815260200160002060006101000a81548173ffffffffffffffffffffffffffffffffffffffff021916908373ffffffffffffffffffffffffffffffffffffffff1602179055505050565b60006040518060a001604052803373ffffffffffffffffffffffffffffffffffffffff1681526020016002548152602001858152602001848661163d919061329b565b81526020018381525090508060036000600254815260200190815260200160002060008201518160000160006101000a81548173ffffffffffffffffffffffffffffffffffffffff021916908373ffffffffffffffffffffffffffffffffffffffff16021790555060208201518160010155604082015181600201556060820151816003015560808201518160040155905050600260008154809291906116e3906131e6565b919050555050505050565b6004602052816000526040600020818154811061170a57600080fd5b9060005260206000209060030201600091509150508060000160009054906101000a900473ffffffffffffffffffffffffffffffffffffffff16908060010160009054906101000a900473ffffffffffffffffffffffffffffffffffffffff16908060020154905083565b6000600160009054906101000a900473ffffffffffffffffffffffffffffffffffffffff16905090565b600681815481106117af57600080fd5b906000526020600020016000915054906101000a900473ffffffffffffffffffffffffffffffffffffffff1681565b60008060046000848152602001908152602001600020805480602002602001604051908101604052809291908181526020016000905b828210156118fc57838290600052602060002090600302016040518060600160405290816000820160009054906101000a900473ffffffffffffffffffffffffffffffffffffffff1673ffffffffffffffffffffffffffffffffffffffff1673ffffffffffffffffffffffffffffffffffffffff1681526020016001820160009054906101000a900473ffffffffffffffffffffffffffffffffffffffff1673ffffffffffffffffffffffffffffffffffffffff1673ffffffffffffffffffffffffffffffffffffffff16815260200160028201548152505081526020019060010190611814565b505050509050600081511415611916576000915050611982565b6000805b825181101561197b57600083828151811061193857611937613014565b5b6020026020010151905060006119568260400151836020015161261d565b90508084611964919061329b565b935050508080611973906131e6565b91505061191a565b5080925050505b919050565b61198f6121e3565b60005b8151811015611a495760008282815181106119b0576119af613014565b5b6020026020010151905060006119c582612662565b90506000811215611a34576006829080600181540180825580915050600190039060005260206000200160009091909190916101000a81548173ffffffffffffffffffffffffffffffffffffffff021916908373ffffffffffffffffffffffffffffffffffffffff1602179055505b50508080611a41906131e6565b915050611992565b5050565b606060046000838152602001908152602001600020805480602002602001604051908101604052809291908181526020016000905b82821015611b6a57838290600052602060002090600302016040518060600160405290816000820160009054906101000a900473ffffffffffffffffffffffffffffffffffffffff1673ffffffffffffffffffffffffffffffffffffffff1673ffffffffffffffffffffffffffffffffffffffff1681526020016001820160009054906101000a900473ffffffffffffffffffffffffffffffffffffffff1673ffffffffffffffffffffffffffffffffffffffff1673ffffffffffffffffffffffffffffffffffffffff16815260200160028201548152505081526020019060010190611a82565b505050509050919050565b60026000541415611bbb576040517f08c379a0000000000000000000000000000000000000000000000000000000008152600401611bb290612ff4565b60405180910390fd5b60026000819055506000611bcf84846123dd565b90506000811215611c15576040517f08c379a0000000000000000000000000000000000000000000000000000000008152600401611c0c9061333d565b60405180910390fd5b6000600460008681526020019081526020016000208281548110611c3c57611c3b613014565b5b90600052602060002090600302016040518060600160405290816000820160009054906101000a900473ffffffffffffffffffffffffffffffffffffffff1673ffffffffffffffffffffffffffffffffffffffff1673ffffffffffffffffffffffffffffffffffffffff1681526020016001820160009054906101000a900473ffffffffffffffffffffffffffffffffffffffff1673ffffffffffffffffffffffffffffffffffffffff1673ffffffffffffffffffffffffffffffffffffffff1681526020016002820154815250509050600073ffffffffffffffffffffffffffffffffffffffff16816020015173ffffffffffffffffffffffffffffffffffffffff1614158015611d52575082816040015110155b156120825782600460008781526020019081526020016000208381548110611d7d57611d7c613014565b5b90600052602060002090600302016002016000828254611d9d91906131b2565b925050819055506000849050838173ffffffffffffffffffffffffffffffffffffffff166370a08231306040518263ffffffff1660e01b8152600401611de39190612b40565b60206040518083038186803b158015611dfb57600080fd5b505afa158015611e0f573d6000803e3d6000fd5b505050506040513d601f19601f82011682018060405250810190611e339190613372565b1015611e74576040517f08c379a0000000000000000000000000000000000000000000000000000000008152600401611e6b906133eb565b60405180910390fd5b73ae13d989dac2f0debff460ac112a837c89baa7cd73ffffffffffffffffffffffffffffffffffffffff168173ffffffffffffffffffffffffffffffffffffffff161415611fed5773ae13d989dac2f0debff460ac112a837c89baa7cd73ffffffffffffffffffffffffffffffffffffffff16632e1a7d4d856040518263ffffffff1660e01b8152600401611f099190612cb8565b600060405180830381600087803b158015611f2357600080fd5b505af1158015611f37573d6000803e3d6000fd5b5050505060003373ffffffffffffffffffffffffffffffffffffffff1685604051611f6190613074565b60006040518083038185875af1925050503d8060008114611f9e576040519150601f19603f3d011682016040523d82523d6000602084013e611fa3565b606091505b5050905080611fe7576040517f08c379a0000000000000000000000000000000000000000000000000000000008152600401611fde90613457565b60405180910390fd5b5061207c565b8073ffffffffffffffffffffffffffffffffffffffff1663a9059cbb33866040518363ffffffff1660e01b81526004016120289291906130f5565b602060405180830381600087803b15801561204257600080fd5b505af1158015612056573d6000803e3d6000fd5b505050506040513d601f19601f8201168201806040525081019061207a9190613156565b505b506120b4565b6040517f59950a8300000000000000000000000000000000000000000000000000000000815260040160405180910390fd5b50506001600081905550505050565b6120cb6121e3565b600073ffffffffffffffffffffffffffffffffffffffff168173ffffffffffffffffffffffffffffffffffffffff16141561213b576040517f08c379a0000000000000000000000000000000000000000000000000000000008152600401612132906134e9565b60405180910390fd5b61214481612261565b50565b6121df828260405160240161215d929190613580565b6040516020818303038152906040527fb60e72cc000000000000000000000000000000000000000000000000000000007bffffffffffffffffffffffffffffffffffffffffffffffffffffffff19166020820180517bffffffffffffffffffffffffffffffffffffffffffffffffffffffff8381831617835250505050612736565b5050565b6121eb61275f565b73ffffffffffffffffffffffffffffffffffffffff16612209611775565b73ffffffffffffffffffffffffffffffffffffffff161461225f576040517f08c379a0000000000000000000000000000000000000000000000000000000008152600401612256906135fc565b60405180910390fd5b565b6000600160009054906101000a900473ffffffffffffffffffffffffffffffffffffffff16905081600160006101000a81548173ffffffffffffffffffffffffffffffffffffffff021916908373ffffffffffffffffffffffffffffffffffffffff1602179055508173ffffffffffffffffffffffffffffffffffffffff168173ffffffffffffffffffffffffffffffffffffffff167f8be0079c531659141344cd1fd0a4f28419497f9722a3daafe3b4186f6b6457e060405160405180910390a35050565b600080600090505b6006805490508110156123d25760006006828154811061235257612351613014565b5b9060005260206000200160009054906101000a900473ffffffffffffffffffffffffffffffffffffffff1690508373ffffffffffffffffffffffffffffffffffffffff168173ffffffffffffffffffffffffffffffffffffffff1614156123be576001925050506123d8565b5080806123ca906131e6565b91505061232f565b50600090505b919050565b60008060046000858152602001908152602001600020805480602002602001604051908101604052809291908181526020016000905b828210156124fb57838290600052602060002090600302016040518060600160405290816000820160009054906101000a900473ffffffffffffffffffffffffffffffffffffffff1673ffffffffffffffffffffffffffffffffffffffff1673ffffffffffffffffffffffffffffffffffffffff1681526020016001820160009054906101000a900473ffffffffffffffffffffffffffffffffffffffff1673ffffffffffffffffffffffffffffffffffffffff1673ffffffffffffffffffffffffffffffffffffffff16815260200160028201548152505081526020019060010190612413565b505050509050600081511415612534577fffffffffffffffffffffffffffffffffffffffffffffffffffffffffffffffff915050612617565b60005b81518110156125f157600082828151811061255557612554613014565b5b602002602001015190503373ffffffffffffffffffffffffffffffffffffffff16816000015173ffffffffffffffffffffffffffffffffffffffff161480156125cd57508473ffffffffffffffffffffffffffffffffffffffff16816020015173ffffffffffffffffffffffffffffffffffffffff16145b156125dd57819350505050612617565b5080806125e9906131e6565b915050612537565b507fffffffffffffffffffffffffffffffffffffffffffffffffffffffffffffffff9150505b92915050565b600080600061262b84612767565b91509150600081600a61263e919061374f565b838761264a919061379a565b6126549190613823565b905080935050505092915050565b600080600090505b60068054905081101561270c5760006006828154811061268d5761268c613014565b5b9060005260206000200160009054906101000a900473ffffffffffffffffffffffffffffffffffffffff1690508373ffffffffffffffffffffffffffffffffffffffff168173ffffffffffffffffffffffffffffffffffffffff1614156126f8578192505050612731565b508080612704906131e6565b91505061266a565b507fffffffffffffffffffffffffffffffffffffffffffffffffffffffffffffffff90505b919050565b60008151905060006a636f6e736f6c652e6c6f679050602083016000808483855afa5050505050565b600033905090565b6000806000600560008573ffffffffffffffffffffffffffffffffffffffff1673ffffffffffffffffffffffffffffffffffffffff16815260200190815260200160002060009054906101000a900473ffffffffffffffffffffffffffffffffffffffff169050600081905060008173ffffffffffffffffffffffffffffffffffffffff1663feaf968c6040518163ffffffff1660e01b815260040160a06040518083038186803b15801561281b57600080fd5b505afa15801561282f573d6000803e3d6000fd5b505050506040513d601f19601f8201168201806040525081019061285391906138cc565b50505091505060008273ffffffffffffffffffffffffffffffffffffffff1663313ce5676040518163ffffffff1660e01b815260040160206040518083038186803b1580156128a157600080fd5b505afa1580156128b5573d6000803e3d6000fd5b505050506040513d601f19601f820116820180604052508101906128d99190613980565b60ff16905081819550955050505050915091565b6000604051905090565b600080fd5b600080fd5b6000819050919050565b61291481612901565b811461291f57600080fd5b50565b6000813590506129318161290b565b92915050565b60006020828403121561294d5761294c6128f7565b5b600061295b84828501612922565b91505092915050565b600073ffffffffffffffffffffffffffffffffffffffff82169050919050565b600061298f82612964565b9050919050565b61299f81612984565b82525050565b6129ae81612901565b82525050565b600060a0820190506129c96000830188612996565b6129d660208301876129a5565b6129e360408301866129a5565b6129f060608301856129a5565b6129fd60808301846129a5565b9695505050505050565b600081519050919050565b600082825260208201905092915050565b6000819050602082019050919050565b612a3c81612984565b82525050565b6000612a4e8383612a33565b60208301905092915050565b6000602082019050919050565b6000612a7282612a07565b612a7c8185612a12565b9350612a8783612a23565b8060005b83811015612ab8578151612a9f8882612a42565b9750612aaa83612a5a565b925050600181019050612a8b565b5085935050505092915050565b60006020820190508181036000830152612adf8184612a67565b905092915050565b612af081612984565b8114612afb57600080fd5b50565b600081359050612b0d81612ae7565b92915050565b600060208284031215612b2957612b286128f7565b5b6000612b3784828501612afe565b91505092915050565b6000602082019050612b556000830184612996565b92915050565b600080600060608486031215612b7457612b736128f7565b5b6000612b8286828701612922565b9350506020612b9386828701612afe565b9250506040612ba486828701612922565b9150509250925092565b60008060408385031215612bc557612bc46128f7565b5b6000612bd385828601612afe565b9250506020612be485828601612afe565b9150509250929050565b600080600060608486031215612c0757612c066128f7565b5b6000612c1586828701612922565b9350506020612c2686828701612922565b9250506040612c3786828701612922565b9150509250925092565b60008060408385031215612c5857612c576128f7565b5b6000612c6685828601612922565b9250506020612c7785828601612922565b9150509250929050565b6000606082019050612c966000830186612996565b612ca36020830185612996565b612cb060408301846129a5565b949350505050565b6000602082019050612ccd60008301846129a5565b92915050565b600080fd5b6000601f19601f8301169050919050565b7f4e487b7100000000000000000000000000000000000000000000000000000000600052604160045260246000fd5b612d2182612cd8565b810181811067ffffffffffffffff82111715612d4057612d3f612ce9565b5b80604052505050565b6000612d536128ed565b9050612d5f8282612d18565b919050565b600067ffffffffffffffff821115612d7f57612d7e612ce9565b5b602082029050602081019050919050565b600080fd5b6000612da8612da384612d64565b612d49565b90508083825260208201905060208402830185811115612dcb57612dca612d90565b5b835b81811015612df45780612de08882612afe565b845260208401935050602081019050612dcd565b5050509392505050565b600082601f830112612e1357612e12612cd3565b5b8135612e23848260208601612d95565b91505092915050565b600060208284031215612e4257612e416128f7565b5b600082013567ffffffffffffffff811115612e6057612e5f6128fc565b5b612e6c84828501612dfe565b91505092915050565b600081519050919050565b600082825260208201905092915050565b6000819050602082019050919050565b612eaa81612901565b82525050565b606082016000820151612ec66000850182612a33565b506020820151612ed96020850182612a33565b506040820151612eec6040850182612ea1565b50505050565b6000612efe8383612eb0565b60608301905092915050565b6000602082019050919050565b6000612f2282612e75565b612f2c8185612e80565b9350612f3783612e91565b8060005b83811015612f68578151612f4f8882612ef2565b9750612f5a83612f0a565b925050600181019050612f3b565b5085935050505092915050565b60006020820190508181036000830152612f8f8184612f17565b905092915050565b600082825260208201905092915050565b7f5265656e7472616e637947756172643a207265656e7472616e742063616c6c00600082015250565b6000612fde601f83612f97565b9150612fe982612fa8565b602082019050919050565b6000602082019050818103600083015261300d81612fd1565b9050919050565b7f4e487b7100000000000000000000000000000000000000000000000000000000600052603260045260246000fd5b600081905092915050565b50565b600061305e600083613043565b91506130698261304e565b600082019050919050565b600061307f82613051565b9150819050919050565b7f5472616e73616374696f6e206661696c65640000000000000000000000000000600082015250565b60006130bf601283612f97565b91506130ca82613089565b602082019050919050565b600060208201905081810360008301526130ee816130b2565b9050919050565b600060408201905061310a6000830185612996565b61311760208301846129a5565b9392505050565b60008115159050919050565b6131338161311e565b811461313e57600080fd5b50565b6000815190506131508161312a565b92915050565b60006020828403121561316c5761316b6128f7565b5b600061317a84828501613141565b91505092915050565b7f4e487b7100000000000000000000000000000000000000000000000000000000600052601160045260246000fd5b60006131bd82612901565b91506131c883612901565b9250828210156131db576131da613183565b5b828203905092915050565b60006131f182612901565b91507fffffffffffffffffffffffffffffffffffffffffffffffffffffffffffffffff82141561322457613223613183565b5b600182019050919050565b7f4f6e6c79206f776e65722063616e20636c61696d000000000000000000000000600082015250565b6000613265601483612f97565b91506132708261322f565b602082019050919050565b6000602082019050818103600083015261329481613258565b9050919050565b60006132a682612901565b91506132b183612901565b9250827fffffffffffffffffffffffffffffffffffffffffffffffffffffffffffffffff038211156132e6576132e5613183565b5b828201905092915050565b7f4e6f7420666f756e640000000000000000000000000000000000000000000000600082015250565b6000613327600983612f97565b9150613332826132f1565b602082019050919050565b600060208201905081810360008301526133568161331a565b9050919050565b60008151905061336c8161290b565b92915050565b600060208284031215613388576133876128f7565b5b60006133968482850161335d565b91505092915050565b7f496e73756666696369656e742042616c616e6365000000000000000000000000600082015250565b60006133d5601483612f97565b91506133e08261339f565b602082019050919050565b60006020820190508181036000830152613404816133c8565b9050919050565b7f5472616e73666572206661696c65640000000000000000000000000000000000600082015250565b6000613441600f83612f97565b915061344c8261340b565b602082019050919050565b6000602082019050818103600083015261347081613434565b9050919050565b7f4f776e61626c653a206e6577206f776e657220697320746865207a65726f206160008201527f6464726573730000000000000000000000000000000000000000000000000000602082015250565b60006134d3602683612f97565b91506134de82613477565b604082019050919050565b60006020820190508181036000830152613502816134c6565b9050919050565b600081519050919050565b60005b83811015613532578082015181840152602081019050613517565b83811115613541576000848401525b50505050565b600061355282613509565b61355c8185612f97565b935061356c818560208601613514565b61357581612cd8565b840191505092915050565b6000604082019050818103600083015261359a8185613547565b90506135a960208301846129a5565b9392505050565b7f4f776e61626c653a2063616c6c6572206973206e6f7420746865206f776e6572600082015250565b60006135e6602083612f97565b91506135f1826135b0565b602082019050919050565b60006020820190508181036000830152613615816135d9565b9050919050565b60008160011c9050919050565b6000808291508390505b60018511156136735780860481111561364f5761364e613183565b5b600185161561365e5780820291505b808102905061366c8561361c565b9450613633565b94509492505050565b60008261368c5760019050613748565b8161369a5760009050613748565b81600181146136b057600281146136ba576136e9565b6001915050613748565b60ff8411156136cc576136cb613183565b5b8360020a9150848211156136e3576136e2613183565b5b50613748565b5060208310610133831016604e8410600b841016171561371e5782820a90508381111561371957613718613183565b5b613748565b61372b8484846001613629565b9250905081840481111561374257613741613183565b5b81810290505b9392505050565b600061375a82612901565b915061376583612901565b92506137927fffffffffffffffffffffffffffffffffffffffffffffffffffffffffffffffff848461367c565b905092915050565b60006137a582612901565b91506137b083612901565b9250817fffffffffffffffffffffffffffffffffffffffffffffffffffffffffffffffff04831182151516156137e9576137e8613183565b5b828202905092915050565b7f4e487b7100000000000000000000000000000000000000000000000000000000600052601260045260246000fd5b600061382e82612901565b915061383983612901565b925082613849576138486137f4565b5b828204905092915050565b600069ffffffffffffffffffff82169050919050565b61387381613854565b811461387e57600080fd5b50565b6000815190506138908161386a565b92915050565b6000819050919050565b6138a981613896565b81146138b457600080fd5b50565b6000815190506138c6816138a0565b92915050565b600080600080600060a086880312156138e8576138e76128f7565b5b60006138f688828901613881565b9550506020613907888289016138b7565b94505060406139188882890161335d565b93505060606139298882890161335d565b925050608061393a88828901613881565b9150509295509295909350565b600060ff82169050919050565b61395d81613947565b811461396857600080fd5b50565b60008151905061397a81613954565b92915050565b600060208284031215613996576139956128f7565b5b60006139a48482850161396b565b9150509291505056fe546869732069732074686520746f74616c20616d6f756e742072616973656420696e20646f6c6c6172733a20a2646970667358221220dde4db55448bfafb104aad936ea63537024051c0fc74767f156ae0a6517ba1e564736f6c63430008090033",
  "devdoc": {
    "kind": "dev",
    "methods": {
      "owner()": {
        "details": "Returns the address of the current owner."
      },
      "renounceOwnership()": {
        "details": "Leaves the contract without owner. It will not be possible to call `onlyOwner` functions anymore. Can only be called by the current owner. NOTE: Renouncing ownership will leave the contract without an owner, thereby removing any functionality that is only available to the owner."
      },
      "transferOwnership(address)": {
        "details": "Transfers ownership of the contract to a new account (`newOwner`). Can only be called by the current owner."
      }
    },
    "version": 1
  },
  "userdoc": {
    "kind": "user",
    "methods": {},
    "version": 1
  },
  "storageLayout": {
    "storage": [
      {
        "astId": 169,
        "contract": "contracts/Crowdfund.sol:Crowdfund",
        "label": "_status",
        "offset": 0,
        "slot": "0",
        "type": "t_uint256"
      },
      {
        "astId": 53,
        "contract": "contracts/Crowdfund.sol:Crowdfund",
        "label": "_owner",
        "offset": 0,
        "slot": "1",
        "type": "t_address"
      },
      {
        "astId": 333,
        "contract": "contracts/Crowdfund.sol:Crowdfund",
        "label": "id",
        "offset": 0,
        "slot": "2",
        "type": "t_uint256"
      },
      {
        "astId": 362,
        "contract": "contracts/Crowdfund.sol:Crowdfund",
        "label": "projects",
        "offset": 0,
        "slot": "3",
        "type": "t_mapping(t_uint256,t_struct(Project)350_storage)"
      },
      {
        "astId": 368,
        "contract": "contracts/Crowdfund.sol:Crowdfund",
        "label": "backers",
        "offset": 0,
        "slot": "4",
        "type": "t_mapping(t_uint256,t_array(t_struct(BackerInfo)357_storage)dyn_storage)"
      },
      {
        "astId": 372,
        "contract": "contracts/Crowdfund.sol:Crowdfund",
        "label": "tokenToPriceFeed",
        "offset": 0,
        "slot": "5",
        "type": "t_mapping(t_address,t_address)"
      },
      {
        "astId": 375,
        "contract": "contracts/Crowdfund.sol:Crowdfund",
        "label": "supportedTokensAddress",
        "offset": 0,
        "slot": "6",
        "type": "t_array(t_address)dyn_storage"
      }
    ],
    "types": {
      "t_address": {
        "encoding": "inplace",
        "label": "address",
        "numberOfBytes": "20"
      },
      "t_array(t_address)dyn_storage": {
        "base": "t_address",
        "encoding": "dynamic_array",
        "label": "address[]",
        "numberOfBytes": "32"
      },
      "t_array(t_struct(BackerInfo)357_storage)dyn_storage": {
        "base": "t_struct(BackerInfo)357_storage",
        "encoding": "dynamic_array",
        "label": "struct Crowdfund.BackerInfo[]",
        "numberOfBytes": "32"
      },
      "t_mapping(t_address,t_address)": {
        "encoding": "mapping",
        "key": "t_address",
        "label": "mapping(address => address)",
        "numberOfBytes": "32",
        "value": "t_address"
      },
      "t_mapping(t_uint256,t_array(t_struct(BackerInfo)357_storage)dyn_storage)": {
        "encoding": "mapping",
        "key": "t_uint256",
        "label": "mapping(uint256 => struct Crowdfund.BackerInfo[])",
        "numberOfBytes": "32",
        "value": "t_array(t_struct(BackerInfo)357_storage)dyn_storage"
      },
      "t_mapping(t_uint256,t_struct(Project)350_storage)": {
        "encoding": "mapping",
        "key": "t_uint256",
        "label": "mapping(uint256 => struct Crowdfund.Project)",
        "numberOfBytes": "32",
        "value": "t_struct(Project)350_storage"
      },
      "t_struct(BackerInfo)357_storage": {
        "encoding": "inplace",
        "label": "struct Crowdfund.BackerInfo",
        "members": [
          {
            "astId": 352,
            "contract": "contracts/Crowdfund.sol:Crowdfund",
            "label": "backerAddress",
            "offset": 0,
            "slot": "0",
            "type": "t_address"
          },
          {
            "astId": 354,
            "contract": "contracts/Crowdfund.sol:Crowdfund",
            "label": "tokenAddress",
            "offset": 0,
            "slot": "1",
            "type": "t_address"
          },
          {
            "astId": 356,
            "contract": "contracts/Crowdfund.sol:Crowdfund",
            "label": "amount",
            "offset": 0,
            "slot": "2",
            "type": "t_uint256"
          }
        ],
        "numberOfBytes": "96"
      },
      "t_struct(Project)350_storage": {
        "encoding": "inplace",
        "label": "struct Crowdfund.Project",
        "members": [
          {
            "astId": 341,
            "contract": "contracts/Crowdfund.sol:Crowdfund",
            "label": "owner",
            "offset": 0,
            "slot": "0",
            "type": "t_address"
          },
          {
            "astId": 343,
            "contract": "contracts/Crowdfund.sol:Crowdfund",
            "label": "id",
            "offset": 0,
            "slot": "1",
            "type": "t_uint256"
          },
          {
            "astId": 345,
            "contract": "contracts/Crowdfund.sol:Crowdfund",
            "label": "startDay",
            "offset": 0,
            "slot": "2",
            "type": "t_uint256"
          },
          {
            "astId": 347,
            "contract": "contracts/Crowdfund.sol:Crowdfund",
            "label": "endDay",
            "offset": 0,
            "slot": "3",
            "type": "t_uint256"
          },
          {
            "astId": 349,
            "contract": "contracts/Crowdfund.sol:Crowdfund",
            "label": "goal",
            "offset": 0,
            "slot": "4",
            "type": "t_uint256"
          }
        ],
        "numberOfBytes": "160"
      },
      "t_uint256": {
        "encoding": "inplace",
        "label": "uint256",
        "numberOfBytes": "32"
      }
    }
  }
}