{
  "address": "0x34AE4DF117ABa63cda76ff3800bB12dc47452A27",
  "abi": [
    {
      "inputs": [],
      "name": "GoalAlreadyReached",
      "type": "error"
    },
    {
      "inputs": [],
      "name": "GoalNotMet",
      "type": "error"
    },
    {
      "inputs": [],
      "name": "InvalidPledge",
      "type": "error"
    },
    {
      "inputs": [],
      "name": "InvalidProject",
      "type": "error"
    },
    {
      "inputs": [],
      "name": "NotAvailableForPledging",
      "type": "error"
    },
    {
      "inputs": [],
      "name": "NotOwner",
      "type": "error"
    },
    {
      "inputs": [],
      "name": "ProjectStillOpen",
      "type": "error"
    },
    {
      "inputs": [],
      "name": "StartedAlready",
      "type": "error"
    },
    {
      "inputs": [],
      "name": "TokenNotSupported",
      "type": "error"
    },
    {
      "anonymous": false,
      "inputs": [
        {
          "indexed": true,
          "internalType": "address",
          "name": "previousOwner",
          "type": "address"
        },
        {
          "indexed": true,
          "internalType": "address",
          "name": "newOwner",
          "type": "address"
        }
      ],
      "name": "OwnershipTransferred",
      "type": "event"
    },
    {
      "inputs": [],
      "name": "WBNB",
      "outputs": [
        {
          "internalType": "address",
          "name": "",
          "type": "address"
        }
      ],
      "stateMutability": "view",
      "type": "function"
    },
    {
      "inputs": [
        {
          "internalType": "uint256",
          "name": "",
          "type": "uint256"
        }
      ],
      "name": "allProjects",
      "outputs": [
        {
          "internalType": "address",
          "name": "owner",
          "type": "address"
        },
        {
          "internalType": "uint256",
          "name": "id",
          "type": "uint256"
        },
        {
          "internalType": "uint256",
          "name": "startDay",
          "type": "uint256"
        },
        {
          "internalType": "uint256",
          "name": "endDay",
          "type": "uint256"
        },
        {
          "internalType": "uint256",
          "name": "goal",
          "type": "uint256"
        },
        {
          "internalType": "string",
          "name": "projectTitle",
          "type": "string"
        },
        {
          "internalType": "string",
          "name": "projectSubtitle",
          "type": "string"
        },
        {
          "internalType": "string",
          "name": "projectNote",
          "type": "string"
        },
        {
          "internalType": "string",
          "name": "projectImageUrl",
          "type": "string"
        }
      ],
      "stateMutability": "view",
      "type": "function"
    },
    {
      "inputs": [
        {
          "internalType": "uint256",
          "name": "",
          "type": "uint256"
        },
        {
          "internalType": "uint256",
          "name": "",
          "type": "uint256"
        }
      ],
      "name": "backers",
      "outputs": [
        {
          "internalType": "address",
          "name": "backerAddress",
          "type": "address"
        },
        {
          "internalType": "address",
          "name": "tokenAddress",
          "type": "address"
        },
        {
          "internalType": "uint256",
          "name": "amount",
          "type": "uint256"
        }
      ],
      "stateMutability": "view",
      "type": "function"
    },
    {
      "inputs": [
        {
          "internalType": "uint256",
          "name": "_id",
          "type": "uint256"
        }
      ],
      "name": "claim",
      "outputs": [],
      "stateMutability": "nonpayable",
      "type": "function"
    },
    {
      "inputs": [
        {
          "internalType": "uint256",
          "name": "_id",
          "type": "uint256"
        }
      ],
      "name": "close",
      "outputs": [],
      "stateMutability": "nonpayable",
      "type": "function"
    },
    {
      "inputs": [],
      "name": "getAllProjects",
      "outputs": [
        {
          "components": [
            {
              "internalType": "address",
              "name": "owner",
              "type": "address"
            },
            {
              "internalType": "uint256",
              "name": "id",
              "type": "uint256"
            },
            {
              "internalType": "uint256",
              "name": "startDay",
              "type": "uint256"
            },
            {
              "internalType": "uint256",
              "name": "endDay",
              "type": "uint256"
            },
            {
              "internalType": "uint256",
              "name": "goal",
              "type": "uint256"
            },
            {
              "internalType": "string",
              "name": "projectTitle",
              "type": "string"
            },
            {
              "internalType": "string",
              "name": "projectSubtitle",
              "type": "string"
            },
            {
              "internalType": "string",
              "name": "projectNote",
              "type": "string"
            },
            {
              "internalType": "string",
              "name": "projectImageUrl",
              "type": "string"
            }
          ],
          "internalType": "struct Crowdfund.Project[]",
          "name": "",
          "type": "tuple[]"
        }
      ],
      "stateMutability": "view",
      "type": "function"
    },
    {
      "inputs": [
        {
          "internalType": "uint256",
          "name": "_id",
          "type": "uint256"
        }
      ],
      "name": "getBackers",
      "outputs": [
        {
          "components": [
            {
              "internalType": "address",
              "name": "backerAddress",
              "type": "address"
            },
            {
              "internalType": "address",
              "name": "tokenAddress",
              "type": "address"
            },
            {
              "internalType": "uint256",
              "name": "amount",
              "type": "uint256"
            }
          ],
          "internalType": "struct Crowdfund.BackerInfo[]",
          "name": "",
          "type": "tuple[]"
        }
      ],
      "stateMutability": "view",
      "type": "function"
    },
    {
      "inputs": [],
      "name": "getSupportedTokensAddress",
      "outputs": [
        {
          "internalType": "address[]",
          "name": "",
          "type": "address[]"
        }
      ],
      "stateMutability": "view",
      "type": "function"
    },
    {
      "inputs": [
        {
          "internalType": "uint256",
          "name": "_id",
          "type": "uint256"
        }
      ],
      "name": "getTotalAmountRaisedInDollars",
      "outputs": [
        {
          "internalType": "uint256",
          "name": "",
          "type": "uint256"
        }
      ],
      "stateMutability": "view",
      "type": "function"
    },
    {
      "inputs": [
        {
          "internalType": "uint256",
          "name": "startDay",
          "type": "uint256"
        },
        {
          "internalType": "uint256",
          "name": "duration",
          "type": "uint256"
        },
        {
          "internalType": "uint256",
          "name": "goal",
          "type": "uint256"
        },
        {
          "internalType": "string",
          "name": "projectTitle",
          "type": "string"
        },
        {
          "internalType": "string",
          "name": "projectSubtitle",
          "type": "string"
        },
        {
          "internalType": "string",
          "name": "projectNote",
          "type": "string"
        },
        {
          "internalType": "string",
          "name": "projectImageUrl",
          "type": "string"
        }
      ],
      "name": "launch",
      "outputs": [],
      "stateMutability": "nonpayable",
      "type": "function"
    },
    {
      "inputs": [],
      "name": "owner",
      "outputs": [
        {
          "internalType": "address",
          "name": "",
          "type": "address"
        }
      ],
      "stateMutability": "view",
      "type": "function"
    },
    {
      "inputs": [
        {
          "internalType": "uint256",
          "name": "_id",
          "type": "uint256"
        },
        {
          "internalType": "address",
          "name": "tokenAddress",
          "type": "address"
        },
        {
          "internalType": "uint256",
          "name": "amount",
          "type": "uint256"
        }
      ],
      "name": "pledge",
      "outputs": [],
      "stateMutability": "nonpayable",
      "type": "function"
    },
    {
      "inputs": [
        {
          "internalType": "uint256",
          "name": "",
          "type": "uint256"
        }
      ],
      "name": "projects",
      "outputs": [
        {
          "internalType": "address",
          "name": "owner",
          "type": "address"
        },
        {
          "internalType": "uint256",
          "name": "id",
          "type": "uint256"
        },
        {
          "internalType": "uint256",
          "name": "startDay",
          "type": "uint256"
        },
        {
          "internalType": "uint256",
          "name": "endDay",
          "type": "uint256"
        },
        {
          "internalType": "uint256",
          "name": "goal",
          "type": "uint256"
        },
        {
          "internalType": "string",
          "name": "projectTitle",
          "type": "string"
        },
        {
          "internalType": "string",
          "name": "projectSubtitle",
          "type": "string"
        },
        {
          "internalType": "string",
          "name": "projectNote",
          "type": "string"
        },
        {
          "internalType": "string",
          "name": "projectImageUrl",
          "type": "string"
        }
      ],
      "stateMutability": "view",
      "type": "function"
    },
    {
      "inputs": [
        {
          "internalType": "uint256",
          "name": "_id",
          "type": "uint256"
        }
      ],
      "name": "refund",
      "outputs": [],
      "stateMutability": "nonpayable",
      "type": "function"
    },
    {
      "inputs": [],
      "name": "renounceOwnership",
      "outputs": [],
      "stateMutability": "nonpayable",
      "type": "function"
    },
    {
      "inputs": [
        {
          "internalType": "address[]",
          "name": "tokensAddress",
          "type": "address[]"
        }
      ],
      "name": "setSupportedTokensAddress",
      "outputs": [],
      "stateMutability": "nonpayable",
      "type": "function"
    },
    {
      "inputs": [
        {
          "internalType": "address",
          "name": "tokenAddress",
          "type": "address"
        },
        {
          "internalType": "address",
          "name": "priceFeed",
          "type": "address"
        }
      ],
      "name": "setTokenToPriceFeed",
      "outputs": [],
      "stateMutability": "nonpayable",
      "type": "function"
    },
    {
      "inputs": [
        {
          "internalType": "address",
          "name": "newAddress",
          "type": "address"
        }
      ],
      "name": "setWBNBAddress",
      "outputs": [],
      "stateMutability": "nonpayable",
      "type": "function"
    },
    {
      "inputs": [
        {
          "internalType": "uint256",
          "name": "",
          "type": "uint256"
        }
      ],
      "name": "supportedTokensAddress",
      "outputs": [
        {
          "internalType": "address",
          "name": "",
          "type": "address"
        }
      ],
      "stateMutability": "view",
      "type": "function"
    },
    {
      "inputs": [
        {
          "internalType": "address",
          "name": "",
          "type": "address"
        }
      ],
      "name": "tokenToPriceFeed",
      "outputs": [
        {
          "internalType": "address",
          "name": "",
          "type": "address"
        }
      ],
      "stateMutability": "view",
      "type": "function"
    },
    {
      "inputs": [
        {
          "internalType": "address",
          "name": "newOwner",
          "type": "address"
        }
      ],
      "name": "transferOwnership",
      "outputs": [],
      "stateMutability": "nonpayable",
      "type": "function"
    },
    {
      "inputs": [
        {
          "internalType": "uint256",
          "name": "_id",
          "type": "uint256"
        },
        {
          "internalType": "address",
          "name": "tokenAddress",
          "type": "address"
        },
        {
          "internalType": "uint256",
          "name": "amount",
          "type": "uint256"
        }
      ],
      "name": "unpledge",
      "outputs": [],
      "stateMutability": "nonpayable",
      "type": "function"
    },
    {
      "stateMutability": "payable",
      "type": "receive"
    }
  ],
  "transactionHash": "0x7957fe6dbd0163640665029269eaf03625c44f978d8fe2fc86e49c8b9493b9f0",
  "args": [],
  "numDeployments": 4,
  "solcInputHash": "503505020411a3781aca57d0a99d8400",
  "bytecode": "0x608060405273ae13d989dac2f0debff460ac112a837c89baa7cd600260006101000a81548173ffffffffffffffffffffffffffffffffffffffff021916908373ffffffffffffffffffffffffffffffffffffffff1602179055503480156200006657600080fd5b5060016000819055506200008f620000836200009560201b60201c565b6200009d60201b60201c565b62000163565b600033905090565b6000600160009054906101000a900473ffffffffffffffffffffffffffffffffffffffff16905081600160006101000a81548173ffffffffffffffffffffffffffffffffffffffff021916908373ffffffffffffffffffffffffffffffffffffffff1602179055508173ffffffffffffffffffffffffffffffffffffffff168173ffffffffffffffffffffffffffffffffffffffff167f8be0079c531659141344cd1fd0a4f28419497f9722a3daafe3b4186f6b6457e060405160405180910390a35050565b61533e80620001736000396000f3fe6080604052600436106101395760003560e01c80638a18362c116100ab578063c344753a1161006f578063c344753a14610441578063c374efde1461047e578063c5a610e5146104a7578063c9168b72146104d0578063cad623861461050d578063f2fde38b1461053657610140565b80638a18362c146103465780638da5cb5b146103855780638dd95002146103b0578063935a1e9b146103db578063bf2c813c1461040457610140565b80635a992514116100fd5780635a9925141461024a578063715018a6146102755780638078f22c1461028c57806380d03829146102c95780638304669a146102f45780638533879b1461031d57610140565b80630aebeb4e14610145578063107046bd1461016e578063278ecde1146101b3578063379607f5146101dc57806353b3194c1461020557610140565b3661014057005b600080fd5b34801561015157600080fd5b5061016c60048036038101906101679190613ed7565b61055f565b005b34801561017a57600080fd5b5061019560048036038101906101909190613ed7565b61098f565b6040516101aa99989796959493929190613fed565b60405180910390f35b3480156101bf57600080fd5b506101da60048036038101906101d59190613ed7565b610c1d565b005b3480156101e857600080fd5b5061020360048036038101906101fe9190613ed7565b6113e0565b005b34801561021157600080fd5b5061022c60048036038101906102279190613ed7565b61197e565b60405161024199989796959493929190613fed565b60405180910390f35b34801561025657600080fd5b5061025f611c1c565b60405161026c9190614154565b60405180910390f35b34801561028157600080fd5b5061028a611caa565b005b34801561029857600080fd5b506102b360048036038101906102ae91906141a2565b611cbe565b6040516102c091906141cf565b60405180910390f35b3480156102d557600080fd5b506102de611cf1565b6040516102eb91906143df565b60405180910390f35b34801561030057600080fd5b5061031b60048036038101906103169190614401565b612017565b005b34801561032957600080fd5b50610344600480360381019061033f9190614454565b612763565b005b34801561035257600080fd5b5061036d60048036038101906103689190614494565b6127ed565b60405161037c939291906144d4565b60405180910390f35b34801561039157600080fd5b5061039a612874565b6040516103a791906141cf565b60405180910390f35b3480156103bc57600080fd5b506103c561289e565b6040516103d291906141cf565b60405180910390f35b3480156103e757600080fd5b5061040260048036038101906103fd9190614570565b6128c4565b005b34801561041057600080fd5b5061042b60048036038101906104269190613ed7565b612c7e565b60405161043891906141cf565b60405180910390f35b34801561044d57600080fd5b5061046860048036038101906104639190613ed7565b612cbd565b6040516104759190614694565b60405180910390f35b34801561048a57600080fd5b506104a560048036038101906104a091906147ed565b612e66565b005b3480156104b357600080fd5b506104ce60048036038101906104c991906141a2565b612f2c565b005b3480156104dc57600080fd5b506104f760048036038101906104f29190613ed7565b612f70565b6040516105049190614927565b60405180910390f35b34801561051957600080fd5b50610534600480360381019061052f9190614401565b613098565b005b34801561054257600080fd5b5061055d600480360381019061055891906141a2565b613645565b005b600060046000838152602001908152602001600020604051806101200160405290816000820160009054906101000a900473ffffffffffffffffffffffffffffffffffffffff1673ffffffffffffffffffffffffffffffffffffffff1673ffffffffffffffffffffffffffffffffffffffff1681526020016001820154815260200160028201548152602001600382015481526020016004820154815260200160058201805461060e90614978565b80601f016020809104026020016040519081016040528092919081815260200182805461063a90614978565b80156106875780601f1061065c57610100808354040283529160200191610687565b820191906000526020600020905b81548152906001019060200180831161066a57829003601f168201915b505050505081526020016006820180546106a090614978565b80601f01602080910402602001604051908101604052809291908181526020018280546106cc90614978565b80156107195780601f106106ee57610100808354040283529160200191610719565b820191906000526020600020905b8154815290600101906020018083116106fc57829003601f168201915b5050505050815260200160078201805461073290614978565b80601f016020809104026020016040519081016040528092919081815260200182805461075e90614978565b80156107ab5780601f10610780576101008083540402835291602001916107ab565b820191906000526020600020905b81548152906001019060200180831161078e57829003601f168201915b505050505081526020016008820180546107c490614978565b80601f01602080910402602001604051908101604052809291908181526020018280546107f090614978565b801561083d5780601f106108125761010080835404028352916020019161083d565b820191906000526020600020905b81548152906001019060200180831161082057829003601f168201915b5050505050815250509050806000015173ffffffffffffffffffffffffffffffffffffffff163373ffffffffffffffffffffffffffffffffffffffff16146108b1576040517f30cd747100000000000000000000000000000000000000000000000000000000815260040160405180910390fd5b428160400151116108ee576040517fe773459600000000000000000000000000000000000000000000000000000000815260040160405180910390fd5b60046000838152602001908152602001600020600080820160006101000a81549073ffffffffffffffffffffffffffffffffffffffff021916905560018201600090556002820160009055600382016000905560048201600090556005820160006109599190613daa565b6006820160006109699190613daa565b6007820160006109799190613daa565b6008820160006109899190613daa565b50505050565b60046020528060005260406000206000915090508060000160009054906101000a900473ffffffffffffffffffffffffffffffffffffffff16908060010154908060020154908060030154908060040154908060050180546109f090614978565b80601f0160208091040260200160405190810160405280929190818152602001828054610a1c90614978565b8015610a695780601f10610a3e57610100808354040283529160200191610a69565b820191906000526020600020905b815481529060010190602001808311610a4c57829003601f168201915b505050505090806006018054610a7e90614978565b80601f0160208091040260200160405190810160405280929190818152602001828054610aaa90614978565b8015610af75780601f10610acc57610100808354040283529160200191610af7565b820191906000526020600020905b815481529060010190602001808311610ada57829003601f168201915b505050505090806007018054610b0c90614978565b80601f0160208091040260200160405190810160405280929190818152602001828054610b3890614978565b8015610b855780601f10610b5a57610100808354040283529160200191610b85565b820191906000526020600020905b815481529060010190602001808311610b6857829003601f168201915b505050505090806008018054610b9a90614978565b80601f0160208091040260200160405190810160405280929190818152602001828054610bc690614978565b8015610c135780601f10610be857610100808354040283529160200191610c13565b820191906000526020600020905b815481529060010190602001808311610bf657829003601f168201915b5050505050905089565b60026000541415610c63576040517f08c379a0000000000000000000000000000000000000000000000000000000008152600401610c5a906149f6565b60405180910390fd5b6002600081905550600060046000838152602001908152602001600020604051806101200160405290816000820160009054906101000a900473ffffffffffffffffffffffffffffffffffffffff1673ffffffffffffffffffffffffffffffffffffffff1673ffffffffffffffffffffffffffffffffffffffff16815260200160018201548152602001600282015481526020016003820154815260200160048201548152602001600582018054610d1a90614978565b80601f0160208091040260200160405190810160405280929190818152602001828054610d4690614978565b8015610d935780601f10610d6857610100808354040283529160200191610d93565b820191906000526020600020905b815481529060010190602001808311610d7657829003601f168201915b50505050508152602001600682018054610dac90614978565b80601f0160208091040260200160405190810160405280929190818152602001828054610dd890614978565b8015610e255780601f10610dfa57610100808354040283529160200191610e25565b820191906000526020600020905b815481529060010190602001808311610e0857829003601f168201915b50505050508152602001600782018054610e3e90614978565b80601f0160208091040260200160405190810160405280929190818152602001828054610e6a90614978565b8015610eb75780601f10610e8c57610100808354040283529160200191610eb7565b820191906000526020600020905b815481529060010190602001808311610e9a57829003601f168201915b50505050508152602001600882018054610ed090614978565b80601f0160208091040260200160405190810160405280929190818152602001828054610efc90614978565b8015610f495780601f10610f1e57610100808354040283529160200191610f49565b820191906000526020600020905b815481529060010190602001808311610f2c57829003601f168201915b50505050508152505090506000610f5f83612cbd565b90508160600151421015610f9f576040517fcc8aacf000000000000000000000000000000000000000000000000000000000815260040160405180910390fd5b81608001518110610fdc576040517f8cb8251e00000000000000000000000000000000000000000000000000000000815260040160405180910390fd5b600060056000858152602001908152602001600020805480602002602001604051908101604052809291908181526020016000905b828210156110f957838290600052602060002090600302016040518060600160405290816000820160009054906101000a900473ffffffffffffffffffffffffffffffffffffffff1673ffffffffffffffffffffffffffffffffffffffff1673ffffffffffffffffffffffffffffffffffffffff1681526020016001820160009054906101000a900473ffffffffffffffffffffffffffffffffffffffff1673ffffffffffffffffffffffffffffffffffffffff1673ffffffffffffffffffffffffffffffffffffffff16815260200160028201548152505081526020019060010190611011565b50505050905060005b81518110156113d15760008282815181106111205761111f614a16565b5b60200260200101519050600081602001519050600260009054906101000a900473ffffffffffffffffffffffffffffffffffffffff1673ffffffffffffffffffffffffffffffffffffffff168173ffffffffffffffffffffffffffffffffffffffff1614156112d457600260009054906101000a900473ffffffffffffffffffffffffffffffffffffffff1673ffffffffffffffffffffffffffffffffffffffff16632e1a7d4d83604001516040518263ffffffff1660e01b81526004016111e89190614694565b600060405180830381600087803b15801561120257600080fd5b505af1158015611216573d6000803e3d6000fd5b505050506000826000015173ffffffffffffffffffffffffffffffffffffffff16836040015160405161124890614a76565b60006040518083038185875af1925050503d8060008114611285576040519150601f19603f3d011682016040523d82523d6000602084013e61128a565b606091505b50509050806112ce576040517f08c379a00000000000000000000000000000000000000000000000000000000081526004016112c590614ad7565b60405180910390fd5b5061136b565b8073ffffffffffffffffffffffffffffffffffffffff1663a9059cbb836000015184604001516040518363ffffffff1660e01b8152600401611317929190614af7565b602060405180830381600087803b15801561133157600080fd5b505af1158015611345573d6000803e3d6000fd5b505050506040513d601f19601f820116820180604052508101906113699190614b58565b505b816040015160056000898152602001908152602001600020848154811061139557611394614a16565b5b906000526020600020906003020160020160008282546113b59190614bb4565b92505081905550505080806113c990614be8565b915050611102565b50505050600160008190555050565b60026000541415611426576040517f08c379a000000000000000000000000000000000000000000000000000000000815260040161141d906149f6565b60405180910390fd5b60026000819055503373ffffffffffffffffffffffffffffffffffffffff166004600083815260200190815260200160002060000160009054906101000a900473ffffffffffffffffffffffffffffffffffffffff1673ffffffffffffffffffffffffffffffffffffffff16146114d2576040517f08c379a00000000000000000000000000000000000000000000000000000000081526004016114c990614c7d565b60405180910390fd5b600060056000838152602001908152602001600020805480602002602001604051908101604052809291908181526020016000905b828210156115ef57838290600052602060002090600302016040518060600160405290816000820160009054906101000a900473ffffffffffffffffffffffffffffffffffffffff1673ffffffffffffffffffffffffffffffffffffffff1673ffffffffffffffffffffffffffffffffffffffff1681526020016001820160009054906101000a900473ffffffffffffffffffffffffffffffffffffffff1673ffffffffffffffffffffffffffffffffffffffff1673ffffffffffffffffffffffffffffffffffffffff16815260200160028201548152505081526020019060010190611507565b505050509050600061160083612cbd565b90506004600084815260200190815260200160002060030154421015611652576040517fcc8aacf000000000000000000000000000000000000000000000000000000000815260040160405180910390fd5b60046000848152602001908152602001600020600401548110156116a2576040517f115bddd400000000000000000000000000000000000000000000000000000000815260040160405180910390fd5b60005b82518110156119705760008382815181106116c3576116c2614a16565b5b60200260200101519050600260009054906101000a900473ffffffffffffffffffffffffffffffffffffffff1673ffffffffffffffffffffffffffffffffffffffff16816020015173ffffffffffffffffffffffffffffffffffffffff16141561186e57600260009054906101000a900473ffffffffffffffffffffffffffffffffffffffff1673ffffffffffffffffffffffffffffffffffffffff16632e1a7d4d82604001516040518263ffffffff1660e01b81526004016117869190614694565b600060405180830381600087803b1580156117a057600080fd5b505af11580156117b4573d6000803e3d6000fd5b5050505060003373ffffffffffffffffffffffffffffffffffffffff1682604001516040516117e290614a76565b60006040518083038185875af1925050503d806000811461181f576040519150601f19603f3d011682016040523d82523d6000602084013e611824565b606091505b5050905080611868576040517f08c379a000000000000000000000000000000000000000000000000000000000815260040161185f90614ad7565b60405180910390fd5b5061190b565b6000816020015190508073ffffffffffffffffffffffffffffffffffffffff1663a9059cbb3384604001516040518363ffffffff1660e01b81526004016118b6929190614af7565b602060405180830381600087803b1580156118d057600080fd5b505af11580156118e4573d6000803e3d6000fd5b505050506040513d601f19601f820116820180604052508101906119089190614b58565b50505b806040015160056000878152602001908152602001600020838154811061193557611934614a16565b5b906000526020600020906003020160020160008282546119559190614bb4565b9250508190555050808061196890614be8565b9150506116a5565b505050600160008190555050565b6008818154811061198e57600080fd5b90600052602060002090600902016000915090508060000160009054906101000a900473ffffffffffffffffffffffffffffffffffffffff16908060010154908060020154908060030154908060040154908060050180546119ef90614978565b80601f0160208091040260200160405190810160405280929190818152602001828054611a1b90614978565b8015611a685780601f10611a3d57610100808354040283529160200191611a68565b820191906000526020600020905b815481529060010190602001808311611a4b57829003601f168201915b505050505090806006018054611a7d90614978565b80601f0160208091040260200160405190810160405280929190818152602001828054611aa990614978565b8015611af65780601f10611acb57610100808354040283529160200191611af6565b820191906000526020600020905b815481529060010190602001808311611ad957829003601f168201915b505050505090806007018054611b0b90614978565b80601f0160208091040260200160405190810160405280929190818152602001828054611b3790614978565b8015611b845780601f10611b5957610100808354040283529160200191611b84565b820191906000526020600020905b815481529060010190602001808311611b6757829003601f168201915b505050505090806008018054611b9990614978565b80601f0160208091040260200160405190810160405280929190818152602001828054611bc590614978565b8015611c125780601f10611be757610100808354040283529160200191611c12565b820191906000526020600020905b815481529060010190602001808311611bf557829003601f168201915b5050505050905089565b60606007805480602002602001604051908101604052809291908181526020018280548015611ca057602002820191906000526020600020905b8160009054906101000a900473ffffffffffffffffffffffffffffffffffffffff1673ffffffffffffffffffffffffffffffffffffffff1681526020019060010190808311611c56575b5050505050905090565b611cb26136c9565b611cbc6000613747565b565b60066020528060005260406000206000915054906101000a900473ffffffffffffffffffffffffffffffffffffffff1681565b60606008805480602002602001604051908101604052809291908181526020016000905b8282101561200e5783829060005260206000209060090201604051806101200160405290816000820160009054906101000a900473ffffffffffffffffffffffffffffffffffffffff1673ffffffffffffffffffffffffffffffffffffffff1673ffffffffffffffffffffffffffffffffffffffff16815260200160018201548152602001600282015481526020016003820154815260200160048201548152602001600582018054611dc790614978565b80601f0160208091040260200160405190810160405280929190818152602001828054611df390614978565b8015611e405780601f10611e1557610100808354040283529160200191611e40565b820191906000526020600020905b815481529060010190602001808311611e2357829003601f168201915b50505050508152602001600682018054611e5990614978565b80601f0160208091040260200160405190810160405280929190818152602001828054611e8590614978565b8015611ed25780601f10611ea757610100808354040283529160200191611ed2565b820191906000526020600020905b815481529060010190602001808311611eb557829003601f168201915b50505050508152602001600782018054611eeb90614978565b80601f0160208091040260200160405190810160405280929190818152602001828054611f1790614978565b8015611f645780601f10611f3957610100808354040283529160200191611f64565b820191906000526020600020905b815481529060010190602001808311611f4757829003601f168201915b50505050508152602001600882018054611f7d90614978565b80601f0160208091040260200160405190810160405280929190818152602001828054611fa990614978565b8015611ff65780601f10611fcb57610100808354040283529160200191611ff6565b820191906000526020600020905b815481529060010190602001808311611fd957829003601f168201915b50505050508152505081526020019060010190611d15565b50505050905090565b6002600054141561205d576040517f08c379a0000000000000000000000000000000000000000000000000000000008152600401612054906149f6565b60405180910390fd5b6002600081905550600060046000858152602001908152602001600020604051806101200160405290816000820160009054906101000a900473ffffffffffffffffffffffffffffffffffffffff1673ffffffffffffffffffffffffffffffffffffffff1673ffffffffffffffffffffffffffffffffffffffff1681526020016001820154815260200160028201548152602001600382015481526020016004820154815260200160058201805461211490614978565b80601f016020809104026020016040519081016040528092919081815260200182805461214090614978565b801561218d5780601f106121625761010080835404028352916020019161218d565b820191906000526020600020905b81548152906001019060200180831161217057829003601f168201915b505050505081526020016006820180546121a690614978565b80601f01602080910402602001604051908101604052809291908181526020018280546121d290614978565b801561221f5780601f106121f45761010080835404028352916020019161221f565b820191906000526020600020905b81548152906001019060200180831161220257829003601f168201915b5050505050815260200160078201805461223890614978565b80601f016020809104026020016040519081016040528092919081815260200182805461226490614978565b80156122b15780601f10612286576101008083540402835291602001916122b1565b820191906000526020600020905b81548152906001019060200180831161229457829003601f168201915b505050505081526020016008820180546122ca90614978565b80601f01602080910402602001604051908101604052809291908181526020018280546122f690614978565b80156123435780601f1061231857610100808354040283529160200191612343565b820191906000526020600020905b81548152906001019060200180831161232657829003601f168201915b5050505050815250509050600073ffffffffffffffffffffffffffffffffffffffff16816000015173ffffffffffffffffffffffffffffffffffffffff1614156123b9576040517fbe8aa6fc00000000000000000000000000000000000000000000000000000000815260040160405180910390fd5b6123c28361380d565b6123f8576040517f3dd1b30500000000000000000000000000000000000000000000000000000000815260040160405180910390fd5b8060400151421015801561240f5750806060015142105b612445576040517ff99a3eaf00000000000000000000000000000000000000000000000000000000815260040160405180910390fd5b600260009054906101000a900473ffffffffffffffffffffffffffffffffffffffff1673ffffffffffffffffffffffffffffffffffffffff168373ffffffffffffffffffffffffffffffffffffffff161415612530578273ffffffffffffffffffffffffffffffffffffffff166323b872dd3330856040518463ffffffff1660e01b81526004016124d8939291906144d4565b602060405180830381600087803b1580156124f257600080fd5b505af1158015612506573d6000803e3d6000fd5b505050506040513d601f19601f8201168201806040525081019061252a9190614b58565b506125c1565b8273ffffffffffffffffffffffffffffffffffffffff166323b872dd3330856040518463ffffffff1660e01b815260040161256d939291906144d4565b602060405180830381600087803b15801561258757600080fd5b505af115801561259b573d6000803e3d6000fd5b505050506040513d601f19601f820116820180604052508101906125bf9190614b58565b505b60006125cd85856138c3565b9050600081121561270057600060405180606001604052803373ffffffffffffffffffffffffffffffffffffffff1681526020018673ffffffffffffffffffffffffffffffffffffffff1681526020018581525090506005600087815260200190815260200160002081908060018154018082558091505060019003906000526020600020906003020160009091909190915060008201518160000160006101000a81548173ffffffffffffffffffffffffffffffffffffffff021916908373ffffffffffffffffffffffffffffffffffffffff16021790555060208201518160010160006101000a81548173ffffffffffffffffffffffffffffffffffffffff021916908373ffffffffffffffffffffffffffffffffffffffff16021790555060408201518160020155505050612754565b600060056000878152602001908152602001600020828154811061272757612726614a16565b5b906000526020600020906003020190508381600201600082825461274b9190614c9d565b92505081905550505b50506001600081905550505050565b61276b6136c9565b80600660008473ffffffffffffffffffffffffffffffffffffffff1673ffffffffffffffffffffffffffffffffffffffff16815260200190815260200160002060006101000a81548173ffffffffffffffffffffffffffffffffffffffff021916908373ffffffffffffffffffffffffffffffffffffffff1602179055505050565b6005602052816000526040600020818154811061280957600080fd5b9060005260206000209060030201600091509150508060000160009054906101000a900473ffffffffffffffffffffffffffffffffffffffff16908060010160009054906101000a900473ffffffffffffffffffffffffffffffffffffffff16908060020154905083565b6000600160009054906101000a900473ffffffffffffffffffffffffffffffffffffffff16905090565b600260009054906101000a900473ffffffffffffffffffffffffffffffffffffffff1681565b60006040518061012001604052803373ffffffffffffffffffffffffffffffffffffffff16815260200160035481526020018d8152602001620151808d61290b9190614cf3565b8e6129169190614c9d565b81526020018b81526020018a8a8080601f016020809104026020016040519081016040528093929190818152602001838380828437600081840152601f19601f82011690508083019250505050505050815260200188888080601f016020809104026020016040519081016040528093929190818152602001838380828437600081840152601f19601f82011690508083019250505050505050815260200186868080601f016020809104026020016040519081016040528093929190818152602001838380828437600081840152601f19601f82011690508083019250505050505050815260200184848080601f016020809104026020016040519081016040528093929190818152602001838380828437600081840152601f19601f8201169050808301925050505050505081525090508060046000600354815260200190815260200160002060008201518160000160006101000a81548173ffffffffffffffffffffffffffffffffffffffff021916908373ffffffffffffffffffffffffffffffffffffffff1602179055506020820151816001015560408201518160020155606082015181600301556080820151816004015560a0820151816005019080519060200190612aea929190613dea565b5060c0820151816006019080519060200190612b07929190613dea565b5060e0820151816007019080519060200190612b24929190613dea565b50610100820151816008019080519060200190612b42929190613dea565b50905050600881908060018154018082558091505060019003906000526020600020906009020160009091909190915060008201518160000160006101000a81548173ffffffffffffffffffffffffffffffffffffffff021916908373ffffffffffffffffffffffffffffffffffffffff1602179055506020820151816001015560408201518160020155606082015181600301556080820151816004015560a0820151816005019080519060200190612bfd929190613dea565b5060c0820151816006019080519060200190612c1a929190613dea565b5060e0820151816007019080519060200190612c37929190613dea565b50610100820151816008019080519060200190612c55929190613dea565b50505060036000815480929190612c6b90614be8565b9190505550505050505050505050505050565b60078181548110612c8e57600080fd5b906000526020600020016000915054906101000a900473ffffffffffffffffffffffffffffffffffffffff1681565b60008060056000848152602001908152602001600020805480602002602001604051908101604052809291908181526020016000905b82821015612ddb57838290600052602060002090600302016040518060600160405290816000820160009054906101000a900473ffffffffffffffffffffffffffffffffffffffff1673ffffffffffffffffffffffffffffffffffffffff1673ffffffffffffffffffffffffffffffffffffffff1681526020016001820160009054906101000a900473ffffffffffffffffffffffffffffffffffffffff1673ffffffffffffffffffffffffffffffffffffffff1673ffffffffffffffffffffffffffffffffffffffff16815260200160028201548152505081526020019060010190612cf3565b505050509050600081511415612df5576000915050612e61565b6000805b8251811015612e5a576000838281518110612e1757612e16614a16565b5b602002602001015190506000612e3582604001518360200151613b03565b90508084612e439190614c9d565b935050508080612e5290614be8565b915050612df9565b5080925050505b919050565b612e6e6136c9565b60005b8151811015612f28576000828281518110612e8f57612e8e614a16565b5b602002602001015190506000612ea482613b48565b90506000811215612f13576007829080600181540180825580915050600190039060005260206000200160009091909190916101000a81548173ffffffffffffffffffffffffffffffffffffffff021916908373ffffffffffffffffffffffffffffffffffffffff1602179055505b50508080612f2090614be8565b915050612e71565b5050565b80600260006101000a81548173ffffffffffffffffffffffffffffffffffffffff021916908373ffffffffffffffffffffffffffffffffffffffff16021790555050565b606060056000838152602001908152602001600020805480602002602001604051908101604052809291908181526020016000905b8282101561308d57838290600052602060002090600302016040518060600160405290816000820160009054906101000a900473ffffffffffffffffffffffffffffffffffffffff1673ffffffffffffffffffffffffffffffffffffffff1673ffffffffffffffffffffffffffffffffffffffff1681526020016001820160009054906101000a900473ffffffffffffffffffffffffffffffffffffffff1673ffffffffffffffffffffffffffffffffffffffff1673ffffffffffffffffffffffffffffffffffffffff16815260200160028201548152505081526020019060010190612fa5565b505050509050919050565b600260005414156130de576040517f08c379a00000000000000000000000000000000000000000000000000000000081526004016130d5906149f6565b60405180910390fd5b600260008190555060006130f284846138c3565b90506000811215613138576040517f08c379a000000000000000000000000000000000000000000000000000000000815260040161312f90614d99565b60405180910390fd5b600060056000868152602001908152602001600020828154811061315f5761315e614a16565b5b90600052602060002090600302016040518060600160405290816000820160009054906101000a900473ffffffffffffffffffffffffffffffffffffffff1673ffffffffffffffffffffffffffffffffffffffff1673ffffffffffffffffffffffffffffffffffffffff1681526020016001820160009054906101000a900473ffffffffffffffffffffffffffffffffffffffff1673ffffffffffffffffffffffffffffffffffffffff1673ffffffffffffffffffffffffffffffffffffffff1681526020016002820154815250509050600073ffffffffffffffffffffffffffffffffffffffff16816020015173ffffffffffffffffffffffffffffffffffffffff1614158015613275575082816040015110155b1561360457826005600087815260200190815260200160002083815481106132a05761329f614a16565b5b906000526020600020906003020160020160008282546132c09190614bb4565b92505081905550600260009054906101000a900473ffffffffffffffffffffffffffffffffffffffff1673ffffffffffffffffffffffffffffffffffffffff168473ffffffffffffffffffffffffffffffffffffffff16141561349f5782471015613360576040517f08c379a000000000000000000000000000000000000000000000000000000000815260040161335790614e05565b60405180910390fd5b600260009054906101000a900473ffffffffffffffffffffffffffffffffffffffff1673ffffffffffffffffffffffffffffffffffffffff16632e1a7d4d846040518263ffffffff1660e01b81526004016133bb9190614694565b600060405180830381600087803b1580156133d557600080fd5b505af11580156133e9573d6000803e3d6000fd5b5050505060003373ffffffffffffffffffffffffffffffffffffffff168460405161341390614a76565b60006040518083038185875af1925050503d8060008114613450576040519150601f19603f3d011682016040523d82523d6000602084013e613455565b606091505b5050905080613499576040517f08c379a000000000000000000000000000000000000000000000000000000000815260040161349090614e71565b60405180910390fd5b506135ff565b6000849050838173ffffffffffffffffffffffffffffffffffffffff166370a08231306040518263ffffffff1660e01b81526004016134de91906141cf565b60206040518083038186803b1580156134f657600080fd5b505afa15801561350a573d6000803e3d6000fd5b505050506040513d601f19601f8201168201806040525081019061352e9190614ea6565b101561356f576040517f08c379a000000000000000000000000000000000000000000000000000000000815260040161356690614e05565b60405180910390fd5b8073ffffffffffffffffffffffffffffffffffffffff1663a9059cbb33866040518363ffffffff1660e01b81526004016135aa929190614af7565b602060405180830381600087803b1580156135c457600080fd5b505af11580156135d8573d6000803e3d6000fd5b505050506040513d601f19601f820116820180604052508101906135fc9190614b58565b50505b613636565b6040517f59950a8300000000000000000000000000000000000000000000000000000000815260040160405180910390fd5b50506001600081905550505050565b61364d6136c9565b600073ffffffffffffffffffffffffffffffffffffffff168173ffffffffffffffffffffffffffffffffffffffff1614156136bd576040517f08c379a00000000000000000000000000000000000000000000000000000000081526004016136b490614f45565b60405180910390fd5b6136c681613747565b50565b6136d1613c1c565b73ffffffffffffffffffffffffffffffffffffffff166136ef612874565b73ffffffffffffffffffffffffffffffffffffffff1614613745576040517f08c379a000000000000000000000000000000000000000000000000000000000815260040161373c90614fb1565b60405180910390fd5b565b6000600160009054906101000a900473ffffffffffffffffffffffffffffffffffffffff16905081600160006101000a81548173ffffffffffffffffffffffffffffffffffffffff021916908373ffffffffffffffffffffffffffffffffffffffff1602179055508173ffffffffffffffffffffffffffffffffffffffff168173ffffffffffffffffffffffffffffffffffffffff167f8be0079c531659141344cd1fd0a4f28419497f9722a3daafe3b4186f6b6457e060405160405180910390a35050565b600080600090505b6007805490508110156138b85760006007828154811061383857613837614a16565b5b9060005260206000200160009054906101000a900473ffffffffffffffffffffffffffffffffffffffff1690508373ffffffffffffffffffffffffffffffffffffffff168173ffffffffffffffffffffffffffffffffffffffff1614156138a4576001925050506138be565b5080806138b090614be8565b915050613815565b50600090505b919050565b60008060056000858152602001908152602001600020805480602002602001604051908101604052809291908181526020016000905b828210156139e157838290600052602060002090600302016040518060600160405290816000820160009054906101000a900473ffffffffffffffffffffffffffffffffffffffff1673ffffffffffffffffffffffffffffffffffffffff1673ffffffffffffffffffffffffffffffffffffffff1681526020016001820160009054906101000a900473ffffffffffffffffffffffffffffffffffffffff1673ffffffffffffffffffffffffffffffffffffffff1673ffffffffffffffffffffffffffffffffffffffff168152602001600282015481525050815260200190600101906138f9565b505050509050600081511415613a1a577fffffffffffffffffffffffffffffffffffffffffffffffffffffffffffffffff915050613afd565b60005b8151811015613ad7576000828281518110613a3b57613a3a614a16565b5b602002602001015190503373ffffffffffffffffffffffffffffffffffffffff16816000015173ffffffffffffffffffffffffffffffffffffffff16148015613ab357508473ffffffffffffffffffffffffffffffffffffffff16816020015173ffffffffffffffffffffffffffffffffffffffff16145b15613ac357819350505050613afd565b508080613acf90614be8565b915050613a1d565b507fffffffffffffffffffffffffffffffffffffffffffffffffffffffffffffffff9150505b92915050565b6000806000613b1184613c24565b91509150600081600a613b249190615104565b8387613b309190614cf3565b613b3a919061517e565b905080935050505092915050565b600080600090505b600780549050811015613bf257600060078281548110613b7357613b72614a16565b5b9060005260206000200160009054906101000a900473ffffffffffffffffffffffffffffffffffffffff1690508373ffffffffffffffffffffffffffffffffffffffff168173ffffffffffffffffffffffffffffffffffffffff161415613bde578192505050613c17565b508080613bea90614be8565b915050613b50565b507fffffffffffffffffffffffffffffffffffffffffffffffffffffffffffffffff90505b919050565b600033905090565b6000806000600660008573ffffffffffffffffffffffffffffffffffffffff1673ffffffffffffffffffffffffffffffffffffffff16815260200190815260200160002060009054906101000a900473ffffffffffffffffffffffffffffffffffffffff169050600081905060008173ffffffffffffffffffffffffffffffffffffffff1663feaf968c6040518163ffffffff1660e01b815260040160a06040518083038186803b158015613cd857600080fd5b505afa158015613cec573d6000803e3d6000fd5b505050506040513d601f19601f82011682018060405250810190613d109190615227565b50505091505060008273ffffffffffffffffffffffffffffffffffffffff1663313ce5676040518163ffffffff1660e01b815260040160206040518083038186803b158015613d5e57600080fd5b505afa158015613d72573d6000803e3d6000fd5b505050506040513d601f19601f82011682018060405250810190613d9691906152db565b60ff16905081819550955050505050915091565b508054613db690614978565b6000825580601f10613dc85750613de7565b601f016020900490600052602060002090810190613de69190613e70565b5b50565b828054613df690614978565b90600052602060002090601f016020900481019282613e185760008555613e5f565b82601f10613e3157805160ff1916838001178555613e5f565b82800160010185558215613e5f579182015b82811115613e5e578251825591602001919060010190613e43565b5b509050613e6c9190613e70565b5090565b5b80821115613e89576000816000905550600101613e71565b5090565b6000604051905090565b600080fd5b600080fd5b6000819050919050565b613eb481613ea1565b8114613ebf57600080fd5b50565b600081359050613ed181613eab565b92915050565b600060208284031215613eed57613eec613e97565b5b6000613efb84828501613ec2565b91505092915050565b600073ffffffffffffffffffffffffffffffffffffffff82169050919050565b6000613f2f82613f04565b9050919050565b613f3f81613f24565b82525050565b613f4e81613ea1565b82525050565b600081519050919050565b600082825260208201905092915050565b60005b83811015613f8e578082015181840152602081019050613f73565b83811115613f9d576000848401525b50505050565b6000601f19601f8301169050919050565b6000613fbf82613f54565b613fc98185613f5f565b9350613fd9818560208601613f70565b613fe281613fa3565b840191505092915050565b600061012082019050614003600083018c613f36565b614010602083018b613f45565b61401d604083018a613f45565b61402a6060830189613f45565b6140376080830188613f45565b81810360a08301526140498187613fb4565b905081810360c083015261405d8186613fb4565b905081810360e08301526140718185613fb4565b90508181036101008301526140868184613fb4565b90509a9950505050505050505050565b600081519050919050565b600082825260208201905092915050565b6000819050602082019050919050565b6140cb81613f24565b82525050565b60006140dd83836140c2565b60208301905092915050565b6000602082019050919050565b600061410182614096565b61410b81856140a1565b9350614116836140b2565b8060005b8381101561414757815161412e88826140d1565b9750614139836140e9565b92505060018101905061411a565b5085935050505092915050565b6000602082019050818103600083015261416e81846140f6565b905092915050565b61417f81613f24565b811461418a57600080fd5b50565b60008135905061419c81614176565b92915050565b6000602082840312156141b8576141b7613e97565b5b60006141c68482850161418d565b91505092915050565b60006020820190506141e46000830184613f36565b92915050565b600081519050919050565b600082825260208201905092915050565b6000819050602082019050919050565b61421f81613ea1565b82525050565b600082825260208201905092915050565b600061424182613f54565b61424b8185614225565b935061425b818560208601613f70565b61426481613fa3565b840191505092915050565b60006101208301600083015161428860008601826140c2565b50602083015161429b6020860182614216565b5060408301516142ae6040860182614216565b5060608301516142c16060860182614216565b5060808301516142d46080860182614216565b5060a083015184820360a08601526142ec8282614236565b91505060c083015184820360c08601526143068282614236565b91505060e083015184820360e08601526143208282614236565b91505061010083015184820361010086015261433c8282614236565b9150508091505092915050565b6000614355838361426f565b905092915050565b6000602082019050919050565b6000614375826141ea565b61437f81856141f5565b93508360208202850161439185614206565b8060005b858110156143cd57848403895281516143ae8582614349565b94506143b98361435d565b925060208a01995050600181019050614395565b50829750879550505050505092915050565b600060208201905081810360008301526143f9818461436a565b905092915050565b60008060006060848603121561441a57614419613e97565b5b600061442886828701613ec2565b93505060206144398682870161418d565b925050604061444a86828701613ec2565b9150509250925092565b6000806040838503121561446b5761446a613e97565b5b60006144798582860161418d565b925050602061448a8582860161418d565b9150509250929050565b600080604083850312156144ab576144aa613e97565b5b60006144b985828601613ec2565b92505060206144ca85828601613ec2565b9150509250929050565b60006060820190506144e96000830186613f36565b6144f66020830185613f36565b6145036040830184613f45565b949350505050565b600080fd5b600080fd5b600080fd5b60008083601f8401126145305761452f61450b565b5b8235905067ffffffffffffffff81111561454d5761454c614510565b5b60208301915083600182028301111561456957614568614515565b5b9250929050565b600080600080600080600080600080600060e08c8e03121561459557614594613e97565b5b60006145a38e828f01613ec2565b9b505060206145b48e828f01613ec2565b9a505060406145c58e828f01613ec2565b99505060608c013567ffffffffffffffff8111156145e6576145e5613e9c565b5b6145f28e828f0161451a565b985098505060808c013567ffffffffffffffff81111561461557614614613e9c565b5b6146218e828f0161451a565b965096505060a08c013567ffffffffffffffff81111561464457614643613e9c565b5b6146508e828f0161451a565b945094505060c08c013567ffffffffffffffff81111561467357614672613e9c565b5b61467f8e828f0161451a565b92509250509295989b509295989b9093969950565b60006020820190506146a96000830184613f45565b92915050565b7f4e487b7100000000000000000000000000000000000000000000000000000000600052604160045260246000fd5b6146e782613fa3565b810181811067ffffffffffffffff82111715614706576147056146af565b5b80604052505050565b6000614719613e8d565b905061472582826146de565b919050565b600067ffffffffffffffff821115614745576147446146af565b5b602082029050602081019050919050565b60006147696147648461472a565b61470f565b9050808382526020820190506020840283018581111561478c5761478b614515565b5b835b818110156147b557806147a1888261418d565b84526020840193505060208101905061478e565b5050509392505050565b600082601f8301126147d4576147d361450b565b5b81356147e4848260208601614756565b91505092915050565b60006020828403121561480357614802613e97565b5b600082013567ffffffffffffffff81111561482157614820613e9c565b5b61482d848285016147bf565b91505092915050565b600081519050919050565b600082825260208201905092915050565b6000819050602082019050919050565b60608201600082015161487860008501826140c2565b50602082015161488b60208501826140c2565b50604082015161489e6040850182614216565b50505050565b60006148b08383614862565b60608301905092915050565b6000602082019050919050565b60006148d482614836565b6148de8185614841565b93506148e983614852565b8060005b8381101561491a57815161490188826148a4565b975061490c836148bc565b9250506001810190506148ed565b5085935050505092915050565b6000602082019050818103600083015261494181846148c9565b905092915050565b7f4e487b7100000000000000000000000000000000000000000000000000000000600052602260045260246000fd5b6000600282049050600182168061499057607f821691505b602082108114156149a4576149a3614949565b5b50919050565b7f5265656e7472616e637947756172643a207265656e7472616e742063616c6c00600082015250565b60006149e0601f83613f5f565b91506149eb826149aa565b602082019050919050565b60006020820190508181036000830152614a0f816149d3565b9050919050565b7f4e487b7100000000000000000000000000000000000000000000000000000000600052603260045260246000fd5b600081905092915050565b50565b6000614a60600083614a45565b9150614a6b82614a50565b600082019050919050565b6000614a8182614a53565b9150819050919050565b7f5472616e73616374696f6e206661696c65640000000000000000000000000000600082015250565b6000614ac1601283613f5f565b9150614acc82614a8b565b602082019050919050565b60006020820190508181036000830152614af081614ab4565b9050919050565b6000604082019050614b0c6000830185613f36565b614b196020830184613f45565b9392505050565b60008115159050919050565b614b3581614b20565b8114614b4057600080fd5b50565b600081519050614b5281614b2c565b92915050565b600060208284031215614b6e57614b6d613e97565b5b6000614b7c84828501614b43565b91505092915050565b7f4e487b7100000000000000000000000000000000000000000000000000000000600052601160045260246000fd5b6000614bbf82613ea1565b9150614bca83613ea1565b925082821015614bdd57614bdc614b85565b5b828203905092915050565b6000614bf382613ea1565b91507fffffffffffffffffffffffffffffffffffffffffffffffffffffffffffffffff821415614c2657614c25614b85565b5b600182019050919050565b7f4f6e6c79206f776e65722063616e20636c61696d000000000000000000000000600082015250565b6000614c67601483613f5f565b9150614c7282614c31565b602082019050919050565b60006020820190508181036000830152614c9681614c5a565b9050919050565b6000614ca882613ea1565b9150614cb383613ea1565b9250827fffffffffffffffffffffffffffffffffffffffffffffffffffffffffffffffff03821115614ce857614ce7614b85565b5b828201905092915050565b6000614cfe82613ea1565b9150614d0983613ea1565b9250817fffffffffffffffffffffffffffffffffffffffffffffffffffffffffffffffff0483118215151615614d4257614d41614b85565b5b828202905092915050565b7f4e6f7420666f756e640000000000000000000000000000000000000000000000600082015250565b6000614d83600983613f5f565b9150614d8e82614d4d565b602082019050919050565b60006020820190508181036000830152614db281614d76565b9050919050565b7f496e73756666696369656e742042616c616e6365000000000000000000000000600082015250565b6000614def601483613f5f565b9150614dfa82614db9565b602082019050919050565b60006020820190508181036000830152614e1e81614de2565b9050919050565b7f5472616e73666572206661696c65640000000000000000000000000000000000600082015250565b6000614e5b600f83613f5f565b9150614e6682614e25565b602082019050919050565b60006020820190508181036000830152614e8a81614e4e565b9050919050565b600081519050614ea081613eab565b92915050565b600060208284031215614ebc57614ebb613e97565b5b6000614eca84828501614e91565b91505092915050565b7f4f776e61626c653a206e6577206f776e657220697320746865207a65726f206160008201527f6464726573730000000000000000000000000000000000000000000000000000602082015250565b6000614f2f602683613f5f565b9150614f3a82614ed3565b604082019050919050565b60006020820190508181036000830152614f5e81614f22565b9050919050565b7f4f776e61626c653a2063616c6c6572206973206e6f7420746865206f776e6572600082015250565b6000614f9b602083613f5f565b9150614fa682614f65565b602082019050919050565b60006020820190508181036000830152614fca81614f8e565b9050919050565b60008160011c9050919050565b6000808291508390505b60018511156150285780860481111561500457615003614b85565b5b60018516156150135780820291505b808102905061502185614fd1565b9450614fe8565b94509492505050565b60008261504157600190506150fd565b8161504f57600090506150fd565b8160018114615065576002811461506f5761509e565b60019150506150fd565b60ff84111561508157615080614b85565b5b8360020a91508482111561509857615097614b85565b5b506150fd565b5060208310610133831016604e8410600b84101617156150d35782820a9050838111156150ce576150cd614b85565b5b6150fd565b6150e08484846001614fde565b925090508184048111156150f7576150f6614b85565b5b81810290505b9392505050565b600061510f82613ea1565b915061511a83613ea1565b92506151477fffffffffffffffffffffffffffffffffffffffffffffffffffffffffffffffff8484615031565b905092915050565b7f4e487b7100000000000000000000000000000000000000000000000000000000600052601260045260246000fd5b600061518982613ea1565b915061519483613ea1565b9250826151a4576151a361514f565b5b828204905092915050565b600069ffffffffffffffffffff82169050919050565b6151ce816151af565b81146151d957600080fd5b50565b6000815190506151eb816151c5565b92915050565b6000819050919050565b615204816151f1565b811461520f57600080fd5b50565b600081519050615221816151fb565b92915050565b600080600080600060a0868803121561524357615242613e97565b5b6000615251888289016151dc565b955050602061526288828901615212565b945050604061527388828901614e91565b935050606061528488828901614e91565b9250506080615295888289016151dc565b9150509295509295909350565b600060ff82169050919050565b6152b8816152a2565b81146152c357600080fd5b50565b6000815190506152d5816152af565b92915050565b6000602082840312156152f1576152f0613e97565b5b60006152ff848285016152c6565b9150509291505056fea2646970667358221220b6e4256dd7bc58d44c83af4089bbe0496b4d4ed1ae0e8875d6fa5abcdf59b67864736f6c63430008090033",
  "devdoc": {
    "kind": "dev",
    "methods": {
      "owner()": {
        "details": "Returns the address of the current owner."
      },
      "renounceOwnership()": {
        "details": "Leaves the contract without owner. It will not be possible to call `onlyOwner` functions anymore. Can only be called by the current owner. NOTE: Renouncing ownership will leave the contract without an owner, thereby removing any functionality that is only available to the owner."
      },
      "transferOwnership(address)": {
        "details": "Transfers ownership of the contract to a new account (`newOwner`). Can only be called by the current owner."
      }
    },
    "version": 1
  },
  "userdoc": {
    "kind": "user",
    "methods": {},
    "version": 1
  },
  "storageLayout": {
    "storage": [
      {
        "astId": 169,
        "contract": "contracts/Crowdfund.sol:Crowdfund",
        "label": "_status",
        "offset": 0,
        "slot": "0",
        "type": "t_uint256"
      },
      {
        "astId": 53,
        "contract": "contracts/Crowdfund.sol:Crowdfund",
        "label": "_owner",
        "offset": 0,
        "slot": "1",
        "type": "t_address"
      },
      {
        "astId": 331,
        "contract": "contracts/Crowdfund.sol:Crowdfund",
        "label": "WBNB",
        "offset": 0,
        "slot": "2",
        "type": "t_address"
      },
      {
        "astId": 333,
        "contract": "contracts/Crowdfund.sol:Crowdfund",
        "label": "id",
        "offset": 0,
        "slot": "3",
        "type": "t_uint256"
      },
      {
        "astId": 369,
        "contract": "contracts/Crowdfund.sol:Crowdfund",
        "label": "projects",
        "offset": 0,
        "slot": "4",
        "type": "t_mapping(t_uint256,t_struct(Project)357_storage)"
      },
      {
        "astId": 375,
        "contract": "contracts/Crowdfund.sol:Crowdfund",
        "label": "backers",
        "offset": 0,
        "slot": "5",
        "type": "t_mapping(t_uint256,t_array(t_struct(BackerInfo)364_storage)dyn_storage)"
      },
      {
        "astId": 379,
        "contract": "contracts/Crowdfund.sol:Crowdfund",
        "label": "tokenToPriceFeed",
        "offset": 0,
        "slot": "6",
        "type": "t_mapping(t_address,t_address)"
      },
      {
        "astId": 382,
        "contract": "contracts/Crowdfund.sol:Crowdfund",
        "label": "supportedTokensAddress",
        "offset": 0,
        "slot": "7",
        "type": "t_array(t_address)dyn_storage"
      },
      {
        "astId": 386,
        "contract": "contracts/Crowdfund.sol:Crowdfund",
        "label": "allProjects",
        "offset": 0,
        "slot": "8",
        "type": "t_array(t_struct(Project)357_storage)dyn_storage"
      }
    ],
    "types": {
      "t_address": {
        "encoding": "inplace",
        "label": "address",
        "numberOfBytes": "20"
      },
      "t_array(t_address)dyn_storage": {
        "base": "t_address",
        "encoding": "dynamic_array",
        "label": "address[]",
        "numberOfBytes": "32"
      },
      "t_array(t_struct(BackerInfo)364_storage)dyn_storage": {
        "base": "t_struct(BackerInfo)364_storage",
        "encoding": "dynamic_array",
        "label": "struct Crowdfund.BackerInfo[]",
        "numberOfBytes": "32"
      },
      "t_array(t_struct(Project)357_storage)dyn_storage": {
        "base": "t_struct(Project)357_storage",
        "encoding": "dynamic_array",
        "label": "struct Crowdfund.Project[]",
        "numberOfBytes": "32"
      },
      "t_mapping(t_address,t_address)": {
        "encoding": "mapping",
        "key": "t_address",
        "label": "mapping(address => address)",
        "numberOfBytes": "32",
        "value": "t_address"
      },
      "t_mapping(t_uint256,t_array(t_struct(BackerInfo)364_storage)dyn_storage)": {
        "encoding": "mapping",
        "key": "t_uint256",
        "label": "mapping(uint256 => struct Crowdfund.BackerInfo[])",
        "numberOfBytes": "32",
        "value": "t_array(t_struct(BackerInfo)364_storage)dyn_storage"
      },
      "t_mapping(t_uint256,t_struct(Project)357_storage)": {
        "encoding": "mapping",
        "key": "t_uint256",
        "label": "mapping(uint256 => struct Crowdfund.Project)",
        "numberOfBytes": "32",
        "value": "t_struct(Project)357_storage"
      },
      "t_string_storage": {
        "encoding": "bytes",
        "label": "string",
        "numberOfBytes": "32"
      },
      "t_struct(BackerInfo)364_storage": {
        "encoding": "inplace",
        "label": "struct Crowdfund.BackerInfo",
        "members": [
          {
            "astId": 359,
            "contract": "contracts/Crowdfund.sol:Crowdfund",
            "label": "backerAddress",
            "offset": 0,
            "slot": "0",
            "type": "t_address"
          },
          {
            "astId": 361,
            "contract": "contracts/Crowdfund.sol:Crowdfund",
            "label": "tokenAddress",
            "offset": 0,
            "slot": "1",
            "type": "t_address"
          },
          {
            "astId": 363,
            "contract": "contracts/Crowdfund.sol:Crowdfund",
            "label": "amount",
            "offset": 0,
            "slot": "2",
            "type": "t_uint256"
          }
        ],
        "numberOfBytes": "96"
      },
      "t_struct(Project)357_storage": {
        "encoding": "inplace",
        "label": "struct Crowdfund.Project",
        "members": [
          {
            "astId": 340,
            "contract": "contracts/Crowdfund.sol:Crowdfund",
            "label": "owner",
            "offset": 0,
            "slot": "0",
            "type": "t_address"
          },
          {
            "astId": 342,
            "contract": "contracts/Crowdfund.sol:Crowdfund",
            "label": "id",
            "offset": 0,
            "slot": "1",
            "type": "t_uint256"
          },
          {
            "astId": 344,
            "contract": "contracts/Crowdfund.sol:Crowdfund",
            "label": "startDay",
            "offset": 0,
            "slot": "2",
            "type": "t_uint256"
          },
          {
            "astId": 346,
            "contract": "contracts/Crowdfund.sol:Crowdfund",
            "label": "endDay",
            "offset": 0,
            "slot": "3",
            "type": "t_uint256"
          },
          {
            "astId": 348,
            "contract": "contracts/Crowdfund.sol:Crowdfund",
            "label": "goal",
            "offset": 0,
            "slot": "4",
            "type": "t_uint256"
          },
          {
            "astId": 350,
            "contract": "contracts/Crowdfund.sol:Crowdfund",
            "label": "projectTitle",
            "offset": 0,
            "slot": "5",
            "type": "t_string_storage"
          },
          {
            "astId": 352,
            "contract": "contracts/Crowdfund.sol:Crowdfund",
            "label": "projectSubtitle",
            "offset": 0,
            "slot": "6",
            "type": "t_string_storage"
          },
          {
            "astId": 354,
            "contract": "contracts/Crowdfund.sol:Crowdfund",
            "label": "projectNote",
            "offset": 0,
            "slot": "7",
            "type": "t_string_storage"
          },
          {
            "astId": 356,
            "contract": "contracts/Crowdfund.sol:Crowdfund",
            "label": "projectImageUrl",
            "offset": 0,
            "slot": "8",
            "type": "t_string_storage"
          }
        ],
        "numberOfBytes": "288"
      },
      "t_uint256": {
        "encoding": "inplace",
        "label": "uint256",
        "numberOfBytes": "32"
      }
    }
  }
}