{
  "address": "0x7D6EEa7a2263815a20DB40Deb6Bc310C6Bb7b2B8",
  "abi": [
    {
      "inputs": [],
      "name": "GoalAlreadyReached",
      "type": "error"
    },
    {
      "inputs": [],
      "name": "GoalNotMet",
      "type": "error"
    },
    {
      "inputs": [],
      "name": "InvalidPledge",
      "type": "error"
    },
    {
      "inputs": [],
      "name": "InvalidProject",
      "type": "error"
    },
    {
      "inputs": [],
      "name": "NotAvailableForPledging",
      "type": "error"
    },
    {
      "inputs": [],
      "name": "NotOwner",
      "type": "error"
    },
    {
      "inputs": [],
      "name": "ProjectStillOpen",
      "type": "error"
    },
    {
      "inputs": [],
      "name": "StartedAlready",
      "type": "error"
    },
    {
      "inputs": [],
      "name": "TokenNotSupported",
      "type": "error"
    },
    {
      "anonymous": false,
      "inputs": [
        {
          "indexed": true,
          "internalType": "address",
          "name": "previousOwner",
          "type": "address"
        },
        {
          "indexed": true,
          "internalType": "address",
          "name": "newOwner",
          "type": "address"
        }
      ],
      "name": "OwnershipTransferred",
      "type": "event"
    },
    {
      "inputs": [],
      "name": "WBNB",
      "outputs": [
        {
          "internalType": "address",
          "name": "",
          "type": "address"
        }
      ],
      "stateMutability": "view",
      "type": "function"
    },
    {
      "inputs": [
        {
          "internalType": "uint256",
          "name": "",
          "type": "uint256"
        }
      ],
      "name": "allProjects",
      "outputs": [
        {
          "internalType": "address",
          "name": "owner",
          "type": "address"
        },
        {
          "internalType": "uint256",
          "name": "id",
          "type": "uint256"
        },
        {
          "internalType": "uint256",
          "name": "startDay",
          "type": "uint256"
        },
        {
          "internalType": "uint256",
          "name": "endDay",
          "type": "uint256"
        },
        {
          "internalType": "uint256",
          "name": "goal",
          "type": "uint256"
        },
        {
          "internalType": "string",
          "name": "projectTitle",
          "type": "string"
        },
        {
          "internalType": "string",
          "name": "projectSubtitle",
          "type": "string"
        },
        {
          "internalType": "string",
          "name": "projectNote",
          "type": "string"
        },
        {
          "internalType": "string",
          "name": "projectImageUrl",
          "type": "string"
        },
        {
          "internalType": "bool",
          "name": "isFinalized",
          "type": "bool"
        },
        {
          "internalType": "bool",
          "name": "isClaimed",
          "type": "bool"
        },
        {
          "internalType": "bool",
          "name": "isRefunded",
          "type": "bool"
        }
      ],
      "stateMutability": "view",
      "type": "function"
    },
    {
      "inputs": [
        {
          "internalType": "uint256",
          "name": "",
          "type": "uint256"
        },
        {
          "internalType": "uint256",
          "name": "",
          "type": "uint256"
        }
      ],
      "name": "backers",
      "outputs": [
        {
          "internalType": "address",
          "name": "backerAddress",
          "type": "address"
        },
        {
          "internalType": "address",
          "name": "tokenAddress",
          "type": "address"
        },
        {
          "internalType": "uint256",
          "name": "amount",
          "type": "uint256"
        }
      ],
      "stateMutability": "view",
      "type": "function"
    },
    {
      "inputs": [
        {
          "internalType": "uint256",
          "name": "_id",
          "type": "uint256"
        }
      ],
      "name": "claim",
      "outputs": [],
      "stateMutability": "nonpayable",
      "type": "function"
    },
    {
      "inputs": [
        {
          "internalType": "uint256",
          "name": "_id",
          "type": "uint256"
        }
      ],
      "name": "close",
      "outputs": [],
      "stateMutability": "nonpayable",
      "type": "function"
    },
    {
      "inputs": [],
      "name": "getAllProjects",
      "outputs": [
        {
          "components": [
            {
              "internalType": "address",
              "name": "owner",
              "type": "address"
            },
            {
              "internalType": "uint256",
              "name": "id",
              "type": "uint256"
            },
            {
              "internalType": "uint256",
              "name": "startDay",
              "type": "uint256"
            },
            {
              "internalType": "uint256",
              "name": "endDay",
              "type": "uint256"
            },
            {
              "internalType": "uint256",
              "name": "goal",
              "type": "uint256"
            },
            {
              "internalType": "string",
              "name": "projectTitle",
              "type": "string"
            },
            {
              "internalType": "string",
              "name": "projectSubtitle",
              "type": "string"
            },
            {
              "internalType": "string",
              "name": "projectNote",
              "type": "string"
            },
            {
              "internalType": "string",
              "name": "projectImageUrl",
              "type": "string"
            },
            {
              "internalType": "bool",
              "name": "isFinalized",
              "type": "bool"
            },
            {
              "internalType": "bool",
              "name": "isClaimed",
              "type": "bool"
            },
            {
              "internalType": "bool",
              "name": "isRefunded",
              "type": "bool"
            }
          ],
          "internalType": "struct Crowdfund.Project[]",
          "name": "",
          "type": "tuple[]"
        }
      ],
      "stateMutability": "view",
      "type": "function"
    },
    {
      "inputs": [
        {
          "internalType": "uint256",
          "name": "_id",
          "type": "uint256"
        }
      ],
      "name": "getBackers",
      "outputs": [
        {
          "components": [
            {
              "internalType": "address",
              "name": "backerAddress",
              "type": "address"
            },
            {
              "internalType": "address",
              "name": "tokenAddress",
              "type": "address"
            },
            {
              "internalType": "uint256",
              "name": "amount",
              "type": "uint256"
            }
          ],
          "internalType": "struct Crowdfund.BackerInfo[]",
          "name": "",
          "type": "tuple[]"
        }
      ],
      "stateMutability": "view",
      "type": "function"
    },
    {
      "inputs": [],
      "name": "getSupportedTokensAddress",
      "outputs": [
        {
          "internalType": "address[]",
          "name": "",
          "type": "address[]"
        }
      ],
      "stateMutability": "view",
      "type": "function"
    },
    {
      "inputs": [
        {
          "internalType": "uint256",
          "name": "_id",
          "type": "uint256"
        }
      ],
      "name": "getTotalAmountRaisedInDollars",
      "outputs": [
        {
          "internalType": "uint256",
          "name": "",
          "type": "uint256"
        }
      ],
      "stateMutability": "view",
      "type": "function"
    },
    {
      "inputs": [
        {
          "internalType": "uint256",
          "name": "startDay",
          "type": "uint256"
        },
        {
          "internalType": "uint256",
          "name": "duration",
          "type": "uint256"
        },
        {
          "internalType": "uint256",
          "name": "goal",
          "type": "uint256"
        },
        {
          "internalType": "string",
          "name": "projectTitle",
          "type": "string"
        },
        {
          "internalType": "string",
          "name": "projectSubtitle",
          "type": "string"
        },
        {
          "internalType": "string",
          "name": "projectNote",
          "type": "string"
        },
        {
          "internalType": "string",
          "name": "projectImageUrl",
          "type": "string"
        }
      ],
      "name": "launch",
      "outputs": [],
      "stateMutability": "nonpayable",
      "type": "function"
    },
    {
      "inputs": [],
      "name": "owner",
      "outputs": [
        {
          "internalType": "address",
          "name": "",
          "type": "address"
        }
      ],
      "stateMutability": "view",
      "type": "function"
    },
    {
      "inputs": [
        {
          "internalType": "uint256",
          "name": "_id",
          "type": "uint256"
        },
        {
          "internalType": "address",
          "name": "tokenAddress",
          "type": "address"
        },
        {
          "internalType": "uint256",
          "name": "amount",
          "type": "uint256"
        }
      ],
      "name": "pledge",
      "outputs": [],
      "stateMutability": "nonpayable",
      "type": "function"
    },
    {
      "inputs": [
        {
          "internalType": "uint256",
          "name": "",
          "type": "uint256"
        }
      ],
      "name": "projects",
      "outputs": [
        {
          "internalType": "address",
          "name": "owner",
          "type": "address"
        },
        {
          "internalType": "uint256",
          "name": "id",
          "type": "uint256"
        },
        {
          "internalType": "uint256",
          "name": "startDay",
          "type": "uint256"
        },
        {
          "internalType": "uint256",
          "name": "endDay",
          "type": "uint256"
        },
        {
          "internalType": "uint256",
          "name": "goal",
          "type": "uint256"
        },
        {
          "internalType": "string",
          "name": "projectTitle",
          "type": "string"
        },
        {
          "internalType": "string",
          "name": "projectSubtitle",
          "type": "string"
        },
        {
          "internalType": "string",
          "name": "projectNote",
          "type": "string"
        },
        {
          "internalType": "string",
          "name": "projectImageUrl",
          "type": "string"
        },
        {
          "internalType": "bool",
          "name": "isFinalized",
          "type": "bool"
        },
        {
          "internalType": "bool",
          "name": "isClaimed",
          "type": "bool"
        },
        {
          "internalType": "bool",
          "name": "isRefunded",
          "type": "bool"
        }
      ],
      "stateMutability": "view",
      "type": "function"
    },
    {
      "inputs": [
        {
          "internalType": "uint256",
          "name": "_id",
          "type": "uint256"
        }
      ],
      "name": "refund",
      "outputs": [],
      "stateMutability": "nonpayable",
      "type": "function"
    },
    {
      "inputs": [],
      "name": "renounceOwnership",
      "outputs": [],
      "stateMutability": "nonpayable",
      "type": "function"
    },
    {
      "inputs": [
        {
          "internalType": "address[]",
          "name": "tokensAddress",
          "type": "address[]"
        }
      ],
      "name": "setSupportedTokensAddress",
      "outputs": [],
      "stateMutability": "nonpayable",
      "type": "function"
    },
    {
      "inputs": [
        {
          "internalType": "address",
          "name": "tokenAddress",
          "type": "address"
        },
        {
          "internalType": "address",
          "name": "priceFeed",
          "type": "address"
        }
      ],
      "name": "setTokenToPriceFeed",
      "outputs": [],
      "stateMutability": "nonpayable",
      "type": "function"
    },
    {
      "inputs": [
        {
          "internalType": "address",
          "name": "newAddress",
          "type": "address"
        }
      ],
      "name": "setWBNBAddress",
      "outputs": [],
      "stateMutability": "nonpayable",
      "type": "function"
    },
    {
      "inputs": [
        {
          "internalType": "uint256",
          "name": "",
          "type": "uint256"
        }
      ],
      "name": "supportedTokensAddress",
      "outputs": [
        {
          "internalType": "address",
          "name": "",
          "type": "address"
        }
      ],
      "stateMutability": "view",
      "type": "function"
    },
    {
      "inputs": [
        {
          "internalType": "address",
          "name": "",
          "type": "address"
        }
      ],
      "name": "tokenToPriceFeed",
      "outputs": [
        {
          "internalType": "address",
          "name": "",
          "type": "address"
        }
      ],
      "stateMutability": "view",
      "type": "function"
    },
    {
      "inputs": [
        {
          "internalType": "address",
          "name": "newOwner",
          "type": "address"
        }
      ],
      "name": "transferOwnership",
      "outputs": [],
      "stateMutability": "nonpayable",
      "type": "function"
    },
    {
      "inputs": [
        {
          "internalType": "uint256",
          "name": "_id",
          "type": "uint256"
        },
        {
          "internalType": "address",
          "name": "tokenAddress",
          "type": "address"
        },
        {
          "internalType": "uint256",
          "name": "amount",
          "type": "uint256"
        }
      ],
      "name": "unpledge",
      "outputs": [],
      "stateMutability": "nonpayable",
      "type": "function"
    },
    {
      "stateMutability": "payable",
      "type": "receive"
    }
  ],
  "transactionHash": "0x18b1a69808a568ef515435b0e94b2bd588cf461c1c0367a85e11b27c48fd5c00",
  "args": [],
  "numDeployments": 7,
  "solcInputHash": "cf8dd33d7e35774cf8c12b5ff2ac38e1",
  "bytecode": "0x608060405273ae13d989dac2f0debff460ac112a837c89baa7cd600260006101000a81548173ffffffffffffffffffffffffffffffffffffffff021916908373ffffffffffffffffffffffffffffffffffffffff1602179055503480156200006657600080fd5b5060016000819055506200008f620000836200009560201b60201c565b6200009d60201b60201c565b62000163565b600033905090565b6000600160009054906101000a900473ffffffffffffffffffffffffffffffffffffffff16905081600160006101000a81548173ffffffffffffffffffffffffffffffffffffffff021916908373ffffffffffffffffffffffffffffffffffffffff1602179055508173ffffffffffffffffffffffffffffffffffffffff168173ffffffffffffffffffffffffffffffffffffffff167f8be0079c531659141344cd1fd0a4f28419497f9722a3daafe3b4186f6b6457e060405160405180910390a35050565b61574f80620001736000396000f3fe6080604052600436106101395760003560e01c80638a18362c116100ab578063c344753a1161006f578063c344753a14610447578063c374efde14610484578063c5a610e5146104ad578063c9168b72146104d6578063cad6238614610513578063f2fde38b1461053c57610140565b80638a18362c1461034c5780638da5cb5b1461038b5780638dd95002146103b6578063935a1e9b146103e1578063bf2c813c1461040a57610140565b80635a992514116100fd5780635a99251414610250578063715018a61461027b5780638078f22c1461029257806380d03829146102cf5780638304669a146102fa5780638533879b1461032357610140565b80630aebeb4e14610145578063107046bd1461016e578063278ecde1146101b6578063379607f5146101df57806353b3194c1461020857610140565b3661014057005b600080fd5b34801561015157600080fd5b5061016c6004803603810190610167919061425e565b610565565b005b34801561017a57600080fd5b506101956004803603810190610190919061425e565b610a22565b6040516101ad9c9b9a9998979695949392919061438f565b60405180910390f35b3480156101c257600080fd5b506101dd60048036038101906101d8919061425e565b610ce9565b005b3480156101eb57600080fd5b506102066004803603810190610201919061425e565b61155b565b005b34801561021457600080fd5b5061022f600480360381019061022a919061425e565b611b57565b6040516102479c9b9a9998979695949392919061438f565b60405180910390f35b34801561025c57600080fd5b50610265611e2e565b6040516102729190614523565b60405180910390f35b34801561028757600080fd5b50610290611ebc565b005b34801561029e57600080fd5b506102b960048036038101906102b49190614571565b611ed0565b6040516102c6919061459e565b60405180910390f35b3480156102db57600080fd5b506102e4611f03565b6040516102f191906147fc565b60405180910390f35b34801561030657600080fd5b50610321600480360381019061031c919061481e565b61227a565b005b34801561032f57600080fd5b5061034a60048036038101906103459190614871565b612a17565b005b34801561035857600080fd5b50610373600480360381019061036e91906148b1565b612aa1565b604051610382939291906148f1565b60405180910390f35b34801561039757600080fd5b506103a0612b28565b6040516103ad919061459e565b60405180910390f35b3480156103c257600080fd5b506103cb612b52565b6040516103d8919061459e565b60405180910390f35b3480156103ed57600080fd5b506104086004803603810190610403919061498d565b612b78565b005b34801561041657600080fd5b50610431600480360381019061042c919061425e565b613005565b60405161043e919061459e565b60405180910390f35b34801561045357600080fd5b5061046e6004803603810190610469919061425e565b613044565b60405161047b9190614ab1565b60405180910390f35b34801561049057600080fd5b506104ab60048036038101906104a69190614c0a565b6131ed565b005b3480156104b957600080fd5b506104d460048036038101906104cf9190614571565b6132b3565b005b3480156104e257600080fd5b506104fd60048036038101906104f8919061425e565b6132f7565b60405161050a9190614d44565b60405180910390f35b34801561051f57600080fd5b5061053a6004803603810190610535919061481e565b61341f565b005b34801561054857600080fd5b50610563600480360381019061055e9190614571565b6139cc565b005b600060046000838152602001908152602001600020604051806101800160405290816000820160009054906101000a900473ffffffffffffffffffffffffffffffffffffffff1673ffffffffffffffffffffffffffffffffffffffff1673ffffffffffffffffffffffffffffffffffffffff1681526020016001820154815260200160028201548152602001600382015481526020016004820154815260200160058201805461061490614d95565b80601f016020809104026020016040519081016040528092919081815260200182805461064090614d95565b801561068d5780601f106106625761010080835404028352916020019161068d565b820191906000526020600020905b81548152906001019060200180831161067057829003601f168201915b505050505081526020016006820180546106a690614d95565b80601f01602080910402602001604051908101604052809291908181526020018280546106d290614d95565b801561071f5780601f106106f45761010080835404028352916020019161071f565b820191906000526020600020905b81548152906001019060200180831161070257829003601f168201915b5050505050815260200160078201805461073890614d95565b80601f016020809104026020016040519081016040528092919081815260200182805461076490614d95565b80156107b15780601f10610786576101008083540402835291602001916107b1565b820191906000526020600020905b81548152906001019060200180831161079457829003601f168201915b505050505081526020016008820180546107ca90614d95565b80601f01602080910402602001604051908101604052809291908181526020018280546107f690614d95565b80156108435780601f1061081857610100808354040283529160200191610843565b820191906000526020600020905b81548152906001019060200180831161082657829003601f168201915b505050505081526020016009820160009054906101000a900460ff161515151581526020016009820160019054906101000a900460ff161515151581526020016009820160029054906101000a900460ff1615151515815250509050806000015173ffffffffffffffffffffffffffffffffffffffff163373ffffffffffffffffffffffffffffffffffffffff1614610908576040517f30cd747100000000000000000000000000000000000000000000000000000000815260040160405180910390fd5b42816040015111610945576040517fe773459600000000000000000000000000000000000000000000000000000000815260040160405180910390fd5b60046000838152602001908152602001600020600080820160006101000a81549073ffffffffffffffffffffffffffffffffffffffff021916905560018201600090556002820160009055600382016000905560048201600090556005820160006109b09190614131565b6006820160006109c09190614131565b6007820160006109d09190614131565b6008820160006109e09190614131565b6009820160006101000a81549060ff02191690556009820160016101000a81549060ff02191690556009820160026101000a81549060ff021916905550505050565b60046020528060005260406000206000915090508060000160009054906101000a900473ffffffffffffffffffffffffffffffffffffffff1690806001015490806002015490806003015490806004015490806005018054610a8390614d95565b80601f0160208091040260200160405190810160405280929190818152602001828054610aaf90614d95565b8015610afc5780601f10610ad157610100808354040283529160200191610afc565b820191906000526020600020905b815481529060010190602001808311610adf57829003601f168201915b505050505090806006018054610b1190614d95565b80601f0160208091040260200160405190810160405280929190818152602001828054610b3d90614d95565b8015610b8a5780601f10610b5f57610100808354040283529160200191610b8a565b820191906000526020600020905b815481529060010190602001808311610b6d57829003601f168201915b505050505090806007018054610b9f90614d95565b80601f0160208091040260200160405190810160405280929190818152602001828054610bcb90614d95565b8015610c185780601f10610bed57610100808354040283529160200191610c18565b820191906000526020600020905b815481529060010190602001808311610bfb57829003601f168201915b505050505090806008018054610c2d90614d95565b80601f0160208091040260200160405190810160405280929190818152602001828054610c5990614d95565b8015610ca65780601f10610c7b57610100808354040283529160200191610ca6565b820191906000526020600020905b815481529060010190602001808311610c8957829003601f168201915b5050505050908060090160009054906101000a900460ff16908060090160019054906101000a900460ff16908060090160029054906101000a900460ff1690508c565b60026000541415610d2f576040517f08c379a0000000000000000000000000000000000000000000000000000000008152600401610d2690614e13565b60405180910390fd5b6002600081905550600060046000838152602001908152602001600020604051806101800160405290816000820160009054906101000a900473ffffffffffffffffffffffffffffffffffffffff1673ffffffffffffffffffffffffffffffffffffffff1673ffffffffffffffffffffffffffffffffffffffff16815260200160018201548152602001600282015481526020016003820154815260200160048201548152602001600582018054610de690614d95565b80601f0160208091040260200160405190810160405280929190818152602001828054610e1290614d95565b8015610e5f5780601f10610e3457610100808354040283529160200191610e5f565b820191906000526020600020905b815481529060010190602001808311610e4257829003601f168201915b50505050508152602001600682018054610e7890614d95565b80601f0160208091040260200160405190810160405280929190818152602001828054610ea490614d95565b8015610ef15780601f10610ec657610100808354040283529160200191610ef1565b820191906000526020600020905b815481529060010190602001808311610ed457829003601f168201915b50505050508152602001600782018054610f0a90614d95565b80601f0160208091040260200160405190810160405280929190818152602001828054610f3690614d95565b8015610f835780601f10610f5857610100808354040283529160200191610f83565b820191906000526020600020905b815481529060010190602001808311610f6657829003601f168201915b50505050508152602001600882018054610f9c90614d95565b80601f0160208091040260200160405190810160405280929190818152602001828054610fc890614d95565b80156110155780601f10610fea57610100808354040283529160200191611015565b820191906000526020600020905b815481529060010190602001808311610ff857829003601f168201915b505050505081526020016009820160009054906101000a900460ff161515151581526020016009820160019054906101000a900460ff161515151581526020016009820160029054906101000a900460ff1615151515815250509050600061107c83613044565b905081606001514210156110bc576040517fcc8aacf000000000000000000000000000000000000000000000000000000000815260040160405180910390fd5b816080015181106110f9576040517f8cb8251e00000000000000000000000000000000000000000000000000000000815260040160405180910390fd5b600060056000858152602001908152602001600020805480602002602001604051908101604052809291908181526020016000905b8282101561121657838290600052602060002090600302016040518060600160405290816000820160009054906101000a900473ffffffffffffffffffffffffffffffffffffffff1673ffffffffffffffffffffffffffffffffffffffff1673ffffffffffffffffffffffffffffffffffffffff1681526020016001820160009054906101000a900473ffffffffffffffffffffffffffffffffffffffff1673ffffffffffffffffffffffffffffffffffffffff1673ffffffffffffffffffffffffffffffffffffffff1681526020016002820154815250508152602001906001019061112e565b50505050905060005b81518110156114ee57600082828151811061123d5761123c614e33565b5b60200260200101519050600081602001519050600260009054906101000a900473ffffffffffffffffffffffffffffffffffffffff1673ffffffffffffffffffffffffffffffffffffffff168173ffffffffffffffffffffffffffffffffffffffff1614156113f157600260009054906101000a900473ffffffffffffffffffffffffffffffffffffffff1673ffffffffffffffffffffffffffffffffffffffff16632e1a7d4d83604001516040518263ffffffff1660e01b81526004016113059190614ab1565b600060405180830381600087803b15801561131f57600080fd5b505af1158015611333573d6000803e3d6000fd5b505050506000826000015173ffffffffffffffffffffffffffffffffffffffff16836040015160405161136590614e93565b60006040518083038185875af1925050503d80600081146113a2576040519150601f19603f3d011682016040523d82523d6000602084013e6113a7565b606091505b50509050806113eb576040517f08c379a00000000000000000000000000000000000000000000000000000000081526004016113e290614ef4565b60405180910390fd5b50611488565b8073ffffffffffffffffffffffffffffffffffffffff1663a9059cbb836000015184604001516040518363ffffffff1660e01b8152600401611434929190614f14565b602060405180830381600087803b15801561144e57600080fd5b505af1158015611462573d6000803e3d6000fd5b505050506040513d601f19601f820116820180604052508101906114869190614f69565b505b81604001516005600089815260200190815260200160002084815481106114b2576114b1614e33565b5b906000526020600020906003020160020160008282546114d29190614fc5565b92505081905550505080806114e690614ff9565b91505061121f565b5060016004600086815260200190815260200160002060090160006101000a81548160ff02191690831515021790555060016004600086815260200190815260200160002060090160026101000a81548160ff021916908315150217905550505050600160008190555050565b600260005414156115a1576040517f08c379a000000000000000000000000000000000000000000000000000000000815260040161159890614e13565b60405180910390fd5b60026000819055503373ffffffffffffffffffffffffffffffffffffffff166004600083815260200190815260200160002060000160009054906101000a900473ffffffffffffffffffffffffffffffffffffffff1673ffffffffffffffffffffffffffffffffffffffff161461164d576040517f08c379a00000000000000000000000000000000000000000000000000000000081526004016116449061508e565b60405180910390fd5b600060056000838152602001908152602001600020805480602002602001604051908101604052809291908181526020016000905b8282101561176a57838290600052602060002090600302016040518060600160405290816000820160009054906101000a900473ffffffffffffffffffffffffffffffffffffffff1673ffffffffffffffffffffffffffffffffffffffff1673ffffffffffffffffffffffffffffffffffffffff1681526020016001820160009054906101000a900473ffffffffffffffffffffffffffffffffffffffff1673ffffffffffffffffffffffffffffffffffffffff1673ffffffffffffffffffffffffffffffffffffffff16815260200160028201548152505081526020019060010190611682565b505050509050600061177b83613044565b905060046000848152602001908152602001600020600301544210156117cd576040517fcc8aacf000000000000000000000000000000000000000000000000000000000815260040160405180910390fd5b600460008481526020019081526020016000206004015481101561181d576040517f115bddd400000000000000000000000000000000000000000000000000000000815260040160405180910390fd5b60005b8251811015611aeb57600083828151811061183e5761183d614e33565b5b60200260200101519050600260009054906101000a900473ffffffffffffffffffffffffffffffffffffffff1673ffffffffffffffffffffffffffffffffffffffff16816020015173ffffffffffffffffffffffffffffffffffffffff1614156119e957600260009054906101000a900473ffffffffffffffffffffffffffffffffffffffff1673ffffffffffffffffffffffffffffffffffffffff16632e1a7d4d82604001516040518263ffffffff1660e01b81526004016119019190614ab1565b600060405180830381600087803b15801561191b57600080fd5b505af115801561192f573d6000803e3d6000fd5b5050505060003373ffffffffffffffffffffffffffffffffffffffff16826040015160405161195d90614e93565b60006040518083038185875af1925050503d806000811461199a576040519150601f19603f3d011682016040523d82523d6000602084013e61199f565b606091505b50509050806119e3576040517f08c379a00000000000000000000000000000000000000000000000000000000081526004016119da90614ef4565b60405180910390fd5b50611a86565b6000816020015190508073ffffffffffffffffffffffffffffffffffffffff1663a9059cbb3384604001516040518363ffffffff1660e01b8152600401611a31929190614f14565b602060405180830381600087803b158015611a4b57600080fd5b505af1158015611a5f573d6000803e3d6000fd5b505050506040513d601f19601f82011682018060405250810190611a839190614f69565b50505b8060400151600560008781526020019081526020016000208381548110611ab057611aaf614e33565b5b90600052602060002090600302016002016000828254611ad09190614fc5565b92505081905550508080611ae390614ff9565b915050611820565b5060016004600085815260200190815260200160002060090160006101000a81548160ff02191690831515021790555060016004600085815260200190815260200160002060090160016101000a81548160ff0219169083151502179055505050600160008190555050565b60088181548110611b6757600080fd5b90600052602060002090600a02016000915090508060000160009054906101000a900473ffffffffffffffffffffffffffffffffffffffff1690806001015490806002015490806003015490806004015490806005018054611bc890614d95565b80601f0160208091040260200160405190810160405280929190818152602001828054611bf490614d95565b8015611c415780601f10611c1657610100808354040283529160200191611c41565b820191906000526020600020905b815481529060010190602001808311611c2457829003601f168201915b505050505090806006018054611c5690614d95565b80601f0160208091040260200160405190810160405280929190818152602001828054611c8290614d95565b8015611ccf5780601f10611ca457610100808354040283529160200191611ccf565b820191906000526020600020905b815481529060010190602001808311611cb257829003601f168201915b505050505090806007018054611ce490614d95565b80601f0160208091040260200160405190810160405280929190818152602001828054611d1090614d95565b8015611d5d5780601f10611d3257610100808354040283529160200191611d5d565b820191906000526020600020905b815481529060010190602001808311611d4057829003601f168201915b505050505090806008018054611d7290614d95565b80601f0160208091040260200160405190810160405280929190818152602001828054611d9e90614d95565b8015611deb5780601f10611dc057610100808354040283529160200191611deb565b820191906000526020600020905b815481529060010190602001808311611dce57829003601f168201915b5050505050908060090160009054906101000a900460ff16908060090160019054906101000a900460ff16908060090160029054906101000a900460ff1690508c565b60606007805480602002602001604051908101604052809291908181526020018280548015611eb257602002820191906000526020600020905b8160009054906101000a900473ffffffffffffffffffffffffffffffffffffffff1673ffffffffffffffffffffffffffffffffffffffff1681526020019060010190808311611e68575b5050505050905090565b611ec4613a50565b611ece6000613ace565b565b60066020528060005260406000206000915054906101000a900473ffffffffffffffffffffffffffffffffffffffff1681565b60606008805480602002602001604051908101604052809291908181526020016000905b8282101561227157838290600052602060002090600a0201604051806101800160405290816000820160009054906101000a900473ffffffffffffffffffffffffffffffffffffffff1673ffffffffffffffffffffffffffffffffffffffff1673ffffffffffffffffffffffffffffffffffffffff16815260200160018201548152602001600282015481526020016003820154815260200160048201548152602001600582018054611fd990614d95565b80601f016020809104026020016040519081016040528092919081815260200182805461200590614d95565b80156120525780601f1061202757610100808354040283529160200191612052565b820191906000526020600020905b81548152906001019060200180831161203557829003601f168201915b5050505050815260200160068201805461206b90614d95565b80601f016020809104026020016040519081016040528092919081815260200182805461209790614d95565b80156120e45780601f106120b9576101008083540402835291602001916120e4565b820191906000526020600020905b8154815290600101906020018083116120c757829003601f168201915b505050505081526020016007820180546120fd90614d95565b80601f016020809104026020016040519081016040528092919081815260200182805461212990614d95565b80156121765780601f1061214b57610100808354040283529160200191612176565b820191906000526020600020905b81548152906001019060200180831161215957829003601f168201915b5050505050815260200160088201805461218f90614d95565b80601f01602080910402602001604051908101604052809291908181526020018280546121bb90614d95565b80156122085780601f106121dd57610100808354040283529160200191612208565b820191906000526020600020905b8154815290600101906020018083116121eb57829003601f168201915b505050505081526020016009820160009054906101000a900460ff161515151581526020016009820160019054906101000a900460ff161515151581526020016009820160029054906101000a900460ff16151515158152505081526020019060010190611f27565b50505050905090565b600260005414156122c0576040517f08c379a00000000000000000000000000000000000000000000000000000000081526004016122b790614e13565b60405180910390fd5b6002600081905550600060046000858152602001908152602001600020604051806101800160405290816000820160009054906101000a900473ffffffffffffffffffffffffffffffffffffffff1673ffffffffffffffffffffffffffffffffffffffff1673ffffffffffffffffffffffffffffffffffffffff1681526020016001820154815260200160028201548152602001600382015481526020016004820154815260200160058201805461237790614d95565b80601f01602080910402602001604051908101604052809291908181526020018280546123a390614d95565b80156123f05780601f106123c5576101008083540402835291602001916123f0565b820191906000526020600020905b8154815290600101906020018083116123d357829003601f168201915b5050505050815260200160068201805461240990614d95565b80601f016020809104026020016040519081016040528092919081815260200182805461243590614d95565b80156124825780601f1061245757610100808354040283529160200191612482565b820191906000526020600020905b81548152906001019060200180831161246557829003601f168201915b5050505050815260200160078201805461249b90614d95565b80601f01602080910402602001604051908101604052809291908181526020018280546124c790614d95565b80156125145780601f106124e957610100808354040283529160200191612514565b820191906000526020600020905b8154815290600101906020018083116124f757829003601f168201915b5050505050815260200160088201805461252d90614d95565b80601f016020809104026020016040519081016040528092919081815260200182805461255990614d95565b80156125a65780601f1061257b576101008083540402835291602001916125a6565b820191906000526020600020905b81548152906001019060200180831161258957829003601f168201915b505050505081526020016009820160009054906101000a900460ff161515151581526020016009820160019054906101000a900460ff161515151581526020016009820160029054906101000a900460ff1615151515815250509050600073ffffffffffffffffffffffffffffffffffffffff16816000015173ffffffffffffffffffffffffffffffffffffffff16141561266d576040517fbe8aa6fc00000000000000000000000000000000000000000000000000000000815260040160405180910390fd5b61267683613b94565b6126ac576040517f3dd1b30500000000000000000000000000000000000000000000000000000000815260040160405180910390fd5b806040015142101580156126c35750806060015142105b6126f9576040517ff99a3eaf00000000000000000000000000000000000000000000000000000000815260040160405180910390fd5b600260009054906101000a900473ffffffffffffffffffffffffffffffffffffffff1673ffffffffffffffffffffffffffffffffffffffff168373ffffffffffffffffffffffffffffffffffffffff1614156127e4578273ffffffffffffffffffffffffffffffffffffffff166323b872dd3330856040518463ffffffff1660e01b815260040161278c939291906148f1565b602060405180830381600087803b1580156127a657600080fd5b505af11580156127ba573d6000803e3d6000fd5b505050506040513d601f19601f820116820180604052508101906127de9190614f69565b50612875565b8273ffffffffffffffffffffffffffffffffffffffff166323b872dd3330856040518463ffffffff1660e01b8152600401612821939291906148f1565b602060405180830381600087803b15801561283b57600080fd5b505af115801561284f573d6000803e3d6000fd5b505050506040513d601f19601f820116820180604052508101906128739190614f69565b505b60006128818585613c4a565b905060008112156129b457600060405180606001604052803373ffffffffffffffffffffffffffffffffffffffff1681526020018673ffffffffffffffffffffffffffffffffffffffff1681526020018581525090506005600087815260200190815260200160002081908060018154018082558091505060019003906000526020600020906003020160009091909190915060008201518160000160006101000a81548173ffffffffffffffffffffffffffffffffffffffff021916908373ffffffffffffffffffffffffffffffffffffffff16021790555060208201518160010160006101000a81548173ffffffffffffffffffffffffffffffffffffffff021916908373ffffffffffffffffffffffffffffffffffffffff16021790555060408201518160020155505050612a08565b60006005600087815260200190815260200160002082815481106129db576129da614e33565b5b90600052602060002090600302019050838160020160008282546129ff91906150ae565b92505081905550505b50506001600081905550505050565b612a1f613a50565b80600660008473ffffffffffffffffffffffffffffffffffffffff1673ffffffffffffffffffffffffffffffffffffffff16815260200190815260200160002060006101000a81548173ffffffffffffffffffffffffffffffffffffffff021916908373ffffffffffffffffffffffffffffffffffffffff1602179055505050565b60056020528160005260406000208181548110612abd57600080fd5b9060005260206000209060030201600091509150508060000160009054906101000a900473ffffffffffffffffffffffffffffffffffffffff16908060010160009054906101000a900473ffffffffffffffffffffffffffffffffffffffff16908060020154905083565b6000600160009054906101000a900473ffffffffffffffffffffffffffffffffffffffff16905090565b600260009054906101000a900473ffffffffffffffffffffffffffffffffffffffff1681565b60006040518061018001604052803373ffffffffffffffffffffffffffffffffffffffff16815260200160035481526020018d81526020018c8e612bbc91906150ae565b81526020018b81526020018a8a8080601f016020809104026020016040519081016040528093929190818152602001838380828437600081840152601f19601f82011690508083019250505050505050815260200188888080601f016020809104026020016040519081016040528093929190818152602001838380828437600081840152601f19601f82011690508083019250505050505050815260200186868080601f016020809104026020016040519081016040528093929190818152602001838380828437600081840152601f19601f82011690508083019250505050505050815260200184848080601f016020809104026020016040519081016040528093929190818152602001838380828437600081840152601f19601f8201169050808301925050505050505081526020016000151581526020016000151581526020016000151581525090508060046000600354815260200190815260200160002060008201518160000160006101000a81548173ffffffffffffffffffffffffffffffffffffffff021916908373ffffffffffffffffffffffffffffffffffffffff1602179055506020820151816001015560408201518160020155606082015181600301556080820151816004015560a0820151816005019080519060200190612dab929190614171565b5060c0820151816006019080519060200190612dc8929190614171565b5060e0820151816007019080519060200190612de5929190614171565b50610100820151816008019080519060200190612e03929190614171565b506101208201518160090160006101000a81548160ff0219169083151502179055506101408201518160090160016101000a81548160ff0219169083151502179055506101608201518160090160026101000a81548160ff02191690831515021790555090505060088190806001815401808255809150506001900390600052602060002090600a020160009091909190915060008201518160000160006101000a81548173ffffffffffffffffffffffffffffffffffffffff021916908373ffffffffffffffffffffffffffffffffffffffff1602179055506020820151816001015560408201518160020155606082015181600301556080820151816004015560a0820151816005019080519060200190612f21929190614171565b5060c0820151816006019080519060200190612f3e929190614171565b5060e0820151816007019080519060200190612f5b929190614171565b50610100820151816008019080519060200190612f79929190614171565b506101208201518160090160006101000a81548160ff0219169083151502179055506101408201518160090160016101000a81548160ff0219169083151502179055506101608201518160090160026101000a81548160ff021916908315150217905550505060036000815480929190612ff290614ff9565b9190505550505050505050505050505050565b6007818154811061301557600080fd5b906000526020600020016000915054906101000a900473ffffffffffffffffffffffffffffffffffffffff1681565b60008060056000848152602001908152602001600020805480602002602001604051908101604052809291908181526020016000905b8282101561316257838290600052602060002090600302016040518060600160405290816000820160009054906101000a900473ffffffffffffffffffffffffffffffffffffffff1673ffffffffffffffffffffffffffffffffffffffff1673ffffffffffffffffffffffffffffffffffffffff1681526020016001820160009054906101000a900473ffffffffffffffffffffffffffffffffffffffff1673ffffffffffffffffffffffffffffffffffffffff1673ffffffffffffffffffffffffffffffffffffffff1681526020016002820154815250508152602001906001019061307a565b50505050905060008151141561317c5760009150506131e8565b6000805b82518110156131e157600083828151811061319e5761319d614e33565b5b6020026020010151905060006131bc82604001518360200151613e8a565b905080846131ca91906150ae565b9350505080806131d990614ff9565b915050613180565b5080925050505b919050565b6131f5613a50565b60005b81518110156132af57600082828151811061321657613215614e33565b5b60200260200101519050600061322b82613ecf565b9050600081121561329a576007829080600181540180825580915050600190039060005260206000200160009091909190916101000a81548173ffffffffffffffffffffffffffffffffffffffff021916908373ffffffffffffffffffffffffffffffffffffffff1602179055505b505080806132a790614ff9565b9150506131f8565b5050565b80600260006101000a81548173ffffffffffffffffffffffffffffffffffffffff021916908373ffffffffffffffffffffffffffffffffffffffff16021790555050565b606060056000838152602001908152602001600020805480602002602001604051908101604052809291908181526020016000905b8282101561341457838290600052602060002090600302016040518060600160405290816000820160009054906101000a900473ffffffffffffffffffffffffffffffffffffffff1673ffffffffffffffffffffffffffffffffffffffff1673ffffffffffffffffffffffffffffffffffffffff1681526020016001820160009054906101000a900473ffffffffffffffffffffffffffffffffffffffff1673ffffffffffffffffffffffffffffffffffffffff1673ffffffffffffffffffffffffffffffffffffffff1681526020016002820154815250508152602001906001019061332c565b505050509050919050565b60026000541415613465576040517f08c379a000000000000000000000000000000000000000000000000000000000815260040161345c90614e13565b60405180910390fd5b600260008190555060006134798484613c4a565b905060008112156134bf576040517f08c379a00000000000000000000000000000000000000000000000000000000081526004016134b690615150565b60405180910390fd5b60006005600086815260200190815260200160002082815481106134e6576134e5614e33565b5b90600052602060002090600302016040518060600160405290816000820160009054906101000a900473ffffffffffffffffffffffffffffffffffffffff1673ffffffffffffffffffffffffffffffffffffffff1673ffffffffffffffffffffffffffffffffffffffff1681526020016001820160009054906101000a900473ffffffffffffffffffffffffffffffffffffffff1673ffffffffffffffffffffffffffffffffffffffff1673ffffffffffffffffffffffffffffffffffffffff1681526020016002820154815250509050600073ffffffffffffffffffffffffffffffffffffffff16816020015173ffffffffffffffffffffffffffffffffffffffff16141580156135fc575082816040015110155b1561398b578260056000878152602001908152602001600020838154811061362757613626614e33565b5b906000526020600020906003020160020160008282546136479190614fc5565b92505081905550600260009054906101000a900473ffffffffffffffffffffffffffffffffffffffff1673ffffffffffffffffffffffffffffffffffffffff168473ffffffffffffffffffffffffffffffffffffffff16141561382657824710156136e7576040517f08c379a00000000000000000000000000000000000000000000000000000000081526004016136de906151bc565b60405180910390fd5b600260009054906101000a900473ffffffffffffffffffffffffffffffffffffffff1673ffffffffffffffffffffffffffffffffffffffff16632e1a7d4d846040518263ffffffff1660e01b81526004016137429190614ab1565b600060405180830381600087803b15801561375c57600080fd5b505af1158015613770573d6000803e3d6000fd5b5050505060003373ffffffffffffffffffffffffffffffffffffffff168460405161379a90614e93565b60006040518083038185875af1925050503d80600081146137d7576040519150601f19603f3d011682016040523d82523d6000602084013e6137dc565b606091505b5050905080613820576040517f08c379a000000000000000000000000000000000000000000000000000000000815260040161381790615228565b60405180910390fd5b50613986565b6000849050838173ffffffffffffffffffffffffffffffffffffffff166370a08231306040518263ffffffff1660e01b8152600401613865919061459e565b60206040518083038186803b15801561387d57600080fd5b505afa158015613891573d6000803e3d6000fd5b505050506040513d601f19601f820116820180604052508101906138b5919061525d565b10156138f6576040517f08c379a00000000000000000000000000000000000000000000000000000000081526004016138ed906151bc565b60405180910390fd5b8073ffffffffffffffffffffffffffffffffffffffff1663a9059cbb33866040518363ffffffff1660e01b8152600401613931929190614f14565b602060405180830381600087803b15801561394b57600080fd5b505af115801561395f573d6000803e3d6000fd5b505050506040513d601f19601f820116820180604052508101906139839190614f69565b50505b6139bd565b6040517f59950a8300000000000000000000000000000000000000000000000000000000815260040160405180910390fd5b50506001600081905550505050565b6139d4613a50565b600073ffffffffffffffffffffffffffffffffffffffff168173ffffffffffffffffffffffffffffffffffffffff161415613a44576040517f08c379a0000000000000000000000000000000000000000000000000000000008152600401613a3b906152fc565b60405180910390fd5b613a4d81613ace565b50565b613a58613fa3565b73ffffffffffffffffffffffffffffffffffffffff16613a76612b28565b73ffffffffffffffffffffffffffffffffffffffff1614613acc576040517f08c379a0000000000000000000000000000000000000000000000000000000008152600401613ac390615368565b60405180910390fd5b565b6000600160009054906101000a900473ffffffffffffffffffffffffffffffffffffffff16905081600160006101000a81548173ffffffffffffffffffffffffffffffffffffffff021916908373ffffffffffffffffffffffffffffffffffffffff1602179055508173ffffffffffffffffffffffffffffffffffffffff168173ffffffffffffffffffffffffffffffffffffffff167f8be0079c531659141344cd1fd0a4f28419497f9722a3daafe3b4186f6b6457e060405160405180910390a35050565b600080600090505b600780549050811015613c3f57600060078281548110613bbf57613bbe614e33565b5b9060005260206000200160009054906101000a900473ffffffffffffffffffffffffffffffffffffffff1690508373ffffffffffffffffffffffffffffffffffffffff168173ffffffffffffffffffffffffffffffffffffffff161415613c2b57600192505050613c45565b508080613c3790614ff9565b915050613b9c565b50600090505b919050565b60008060056000858152602001908152602001600020805480602002602001604051908101604052809291908181526020016000905b82821015613d6857838290600052602060002090600302016040518060600160405290816000820160009054906101000a900473ffffffffffffffffffffffffffffffffffffffff1673ffffffffffffffffffffffffffffffffffffffff1673ffffffffffffffffffffffffffffffffffffffff1681526020016001820160009054906101000a900473ffffffffffffffffffffffffffffffffffffffff1673ffffffffffffffffffffffffffffffffffffffff1673ffffffffffffffffffffffffffffffffffffffff16815260200160028201548152505081526020019060010190613c80565b505050509050600081511415613da1577fffffffffffffffffffffffffffffffffffffffffffffffffffffffffffffffff915050613e84565b60005b8151811015613e5e576000828281518110613dc257613dc1614e33565b5b602002602001015190503373ffffffffffffffffffffffffffffffffffffffff16816000015173ffffffffffffffffffffffffffffffffffffffff16148015613e3a57508473ffffffffffffffffffffffffffffffffffffffff16816020015173ffffffffffffffffffffffffffffffffffffffff16145b15613e4a57819350505050613e84565b508080613e5690614ff9565b915050613da4565b507fffffffffffffffffffffffffffffffffffffffffffffffffffffffffffffffff9150505b92915050565b6000806000613e9884613fab565b91509150600081600a613eab91906154bb565b8387613eb79190615506565b613ec1919061558f565b905080935050505092915050565b600080600090505b600780549050811015613f7957600060078281548110613efa57613ef9614e33565b5b9060005260206000200160009054906101000a900473ffffffffffffffffffffffffffffffffffffffff1690508373ffffffffffffffffffffffffffffffffffffffff168173ffffffffffffffffffffffffffffffffffffffff161415613f65578192505050613f9e565b508080613f7190614ff9565b915050613ed7565b507fffffffffffffffffffffffffffffffffffffffffffffffffffffffffffffffff90505b919050565b600033905090565b6000806000600660008573ffffffffffffffffffffffffffffffffffffffff1673ffffffffffffffffffffffffffffffffffffffff16815260200190815260200160002060009054906101000a900473ffffffffffffffffffffffffffffffffffffffff169050600081905060008173ffffffffffffffffffffffffffffffffffffffff1663feaf968c6040518163ffffffff1660e01b815260040160a06040518083038186803b15801561405f57600080fd5b505afa158015614073573d6000803e3d6000fd5b505050506040513d601f19601f820116820180604052508101906140979190615638565b50505091505060008273ffffffffffffffffffffffffffffffffffffffff1663313ce5676040518163ffffffff1660e01b815260040160206040518083038186803b1580156140e557600080fd5b505afa1580156140f9573d6000803e3d6000fd5b505050506040513d601f19601f8201168201806040525081019061411d91906156ec565b60ff16905081819550955050505050915091565b50805461413d90614d95565b6000825580601f1061414f575061416e565b601f01602090049060005260206000209081019061416d91906141f7565b5b50565b82805461417d90614d95565b90600052602060002090601f01602090048101928261419f57600085556141e6565b82601f106141b857805160ff19168380011785556141e6565b828001600101855582156141e6579182015b828111156141e55782518255916020019190600101906141ca565b5b5090506141f391906141f7565b5090565b5b808211156142105760008160009055506001016141f8565b5090565b6000604051905090565b600080fd5b600080fd5b6000819050919050565b61423b81614228565b811461424657600080fd5b50565b60008135905061425881614232565b92915050565b6000602082840312156142745761427361421e565b5b600061428284828501614249565b91505092915050565b600073ffffffffffffffffffffffffffffffffffffffff82169050919050565b60006142b68261428b565b9050919050565b6142c6816142ab565b82525050565b6142d581614228565b82525050565b600081519050919050565b600082825260208201905092915050565b60005b838110156143155780820151818401526020810190506142fa565b83811115614324576000848401525b50505050565b6000601f19601f8301169050919050565b6000614346826142db565b61435081856142e6565b93506143608185602086016142f7565b6143698161432a565b840191505092915050565b60008115159050919050565b61438981614374565b82525050565b6000610180820190506143a5600083018f6142bd565b6143b2602083018e6142cc565b6143bf604083018d6142cc565b6143cc606083018c6142cc565b6143d9608083018b6142cc565b81810360a08301526143eb818a61433b565b905081810360c08301526143ff818961433b565b905081810360e0830152614413818861433b565b9050818103610100830152614428818761433b565b9050614438610120830186614380565b614446610140830185614380565b614454610160830184614380565b9d9c50505050505050505050505050565b600081519050919050565b600082825260208201905092915050565b6000819050602082019050919050565b61449a816142ab565b82525050565b60006144ac8383614491565b60208301905092915050565b6000602082019050919050565b60006144d082614465565b6144da8185614470565b93506144e583614481565b8060005b838110156145165781516144fd88826144a0565b9750614508836144b8565b9250506001810190506144e9565b5085935050505092915050565b6000602082019050818103600083015261453d81846144c5565b905092915050565b61454e816142ab565b811461455957600080fd5b50565b60008135905061456b81614545565b92915050565b6000602082840312156145875761458661421e565b5b60006145958482850161455c565b91505092915050565b60006020820190506145b360008301846142bd565b92915050565b600081519050919050565b600082825260208201905092915050565b6000819050602082019050919050565b6145ee81614228565b82525050565b600082825260208201905092915050565b6000614610826142db565b61461a81856145f4565b935061462a8185602086016142f7565b6146338161432a565b840191505092915050565b61464781614374565b82525050565b6000610180830160008301516146666000860182614491565b50602083015161467960208601826145e5565b50604083015161468c60408601826145e5565b50606083015161469f60608601826145e5565b5060808301516146b260808601826145e5565b5060a083015184820360a08601526146ca8282614605565b91505060c083015184820360c08601526146e48282614605565b91505060e083015184820360e08601526146fe8282614605565b91505061010083015184820361010086015261471a8282614605565b91505061012083015161473161012086018261463e565b5061014083015161474661014086018261463e565b5061016083015161475b61016086018261463e565b508091505092915050565b6000614772838361464d565b905092915050565b6000602082019050919050565b6000614792826145b9565b61479c81856145c4565b9350836020820285016147ae856145d5565b8060005b858110156147ea57848403895281516147cb8582614766565b94506147d68361477a565b925060208a019950506001810190506147b2565b50829750879550505050505092915050565b600060208201905081810360008301526148168184614787565b905092915050565b6000806000606084860312156148375761483661421e565b5b600061484586828701614249565b93505060206148568682870161455c565b925050604061486786828701614249565b9150509250925092565b600080604083850312156148885761488761421e565b5b60006148968582860161455c565b92505060206148a78582860161455c565b9150509250929050565b600080604083850312156148c8576148c761421e565b5b60006148d685828601614249565b92505060206148e785828601614249565b9150509250929050565b600060608201905061490660008301866142bd565b61491360208301856142bd565b61492060408301846142cc565b949350505050565b600080fd5b600080fd5b600080fd5b60008083601f84011261494d5761494c614928565b5b8235905067ffffffffffffffff81111561496a5761496961492d565b5b60208301915083600182028301111561498657614985614932565b5b9250929050565b600080600080600080600080600080600060e08c8e0312156149b2576149b161421e565b5b60006149c08e828f01614249565b9b505060206149d18e828f01614249565b9a505060406149e28e828f01614249565b99505060608c013567ffffffffffffffff811115614a0357614a02614223565b5b614a0f8e828f01614937565b985098505060808c013567ffffffffffffffff811115614a3257614a31614223565b5b614a3e8e828f01614937565b965096505060a08c013567ffffffffffffffff811115614a6157614a60614223565b5b614a6d8e828f01614937565b945094505060c08c013567ffffffffffffffff811115614a9057614a8f614223565b5b614a9c8e828f01614937565b92509250509295989b509295989b9093969950565b6000602082019050614ac660008301846142cc565b92915050565b7f4e487b7100000000000000000000000000000000000000000000000000000000600052604160045260246000fd5b614b048261432a565b810181811067ffffffffffffffff82111715614b2357614b22614acc565b5b80604052505050565b6000614b36614214565b9050614b428282614afb565b919050565b600067ffffffffffffffff821115614b6257614b61614acc565b5b602082029050602081019050919050565b6000614b86614b8184614b47565b614b2c565b90508083825260208201905060208402830185811115614ba957614ba8614932565b5b835b81811015614bd25780614bbe888261455c565b845260208401935050602081019050614bab565b5050509392505050565b600082601f830112614bf157614bf0614928565b5b8135614c01848260208601614b73565b91505092915050565b600060208284031215614c2057614c1f61421e565b5b600082013567ffffffffffffffff811115614c3e57614c3d614223565b5b614c4a84828501614bdc565b91505092915050565b600081519050919050565b600082825260208201905092915050565b6000819050602082019050919050565b606082016000820151614c956000850182614491565b506020820151614ca86020850182614491565b506040820151614cbb60408501826145e5565b50505050565b6000614ccd8383614c7f565b60608301905092915050565b6000602082019050919050565b6000614cf182614c53565b614cfb8185614c5e565b9350614d0683614c6f565b8060005b83811015614d37578151614d1e8882614cc1565b9750614d2983614cd9565b925050600181019050614d0a565b5085935050505092915050565b60006020820190508181036000830152614d5e8184614ce6565b905092915050565b7f4e487b7100000000000000000000000000000000000000000000000000000000600052602260045260246000fd5b60006002820490506001821680614dad57607f821691505b60208210811415614dc157614dc0614d66565b5b50919050565b7f5265656e7472616e637947756172643a207265656e7472616e742063616c6c00600082015250565b6000614dfd601f836142e6565b9150614e0882614dc7565b602082019050919050565b60006020820190508181036000830152614e2c81614df0565b9050919050565b7f4e487b7100000000000000000000000000000000000000000000000000000000600052603260045260246000fd5b600081905092915050565b50565b6000614e7d600083614e62565b9150614e8882614e6d565b600082019050919050565b6000614e9e82614e70565b9150819050919050565b7f5472616e73616374696f6e206661696c65640000000000000000000000000000600082015250565b6000614ede6012836142e6565b9150614ee982614ea8565b602082019050919050565b60006020820190508181036000830152614f0d81614ed1565b9050919050565b6000604082019050614f2960008301856142bd565b614f3660208301846142cc565b9392505050565b614f4681614374565b8114614f5157600080fd5b50565b600081519050614f6381614f3d565b92915050565b600060208284031215614f7f57614f7e61421e565b5b6000614f8d84828501614f54565b91505092915050565b7f4e487b7100000000000000000000000000000000000000000000000000000000600052601160045260246000fd5b6000614fd082614228565b9150614fdb83614228565b925082821015614fee57614fed614f96565b5b828203905092915050565b600061500482614228565b91507fffffffffffffffffffffffffffffffffffffffffffffffffffffffffffffffff82141561503757615036614f96565b5b600182019050919050565b7f4f6e6c79206f776e65722063616e20636c61696d000000000000000000000000600082015250565b60006150786014836142e6565b915061508382615042565b602082019050919050565b600060208201905081810360008301526150a78161506b565b9050919050565b60006150b982614228565b91506150c483614228565b9250827fffffffffffffffffffffffffffffffffffffffffffffffffffffffffffffffff038211156150f9576150f8614f96565b5b828201905092915050565b7f4e6f7420666f756e640000000000000000000000000000000000000000000000600082015250565b600061513a6009836142e6565b915061514582615104565b602082019050919050565b600060208201905081810360008301526151698161512d565b9050919050565b7f496e73756666696369656e742042616c616e6365000000000000000000000000600082015250565b60006151a66014836142e6565b91506151b182615170565b602082019050919050565b600060208201905081810360008301526151d581615199565b9050919050565b7f5472616e73666572206661696c65640000000000000000000000000000000000600082015250565b6000615212600f836142e6565b915061521d826151dc565b602082019050919050565b6000602082019050818103600083015261524181615205565b9050919050565b60008151905061525781614232565b92915050565b6000602082840312156152735761527261421e565b5b600061528184828501615248565b91505092915050565b7f4f776e61626c653a206e6577206f776e657220697320746865207a65726f206160008201527f6464726573730000000000000000000000000000000000000000000000000000602082015250565b60006152e66026836142e6565b91506152f18261528a565b604082019050919050565b60006020820190508181036000830152615315816152d9565b9050919050565b7f4f776e61626c653a2063616c6c6572206973206e6f7420746865206f776e6572600082015250565b60006153526020836142e6565b915061535d8261531c565b602082019050919050565b6000602082019050818103600083015261538181615345565b9050919050565b60008160011c9050919050565b6000808291508390505b60018511156153df578086048111156153bb576153ba614f96565b5b60018516156153ca5780820291505b80810290506153d885615388565b945061539f565b94509492505050565b6000826153f857600190506154b4565b8161540657600090506154b4565b816001811461541c576002811461542657615455565b60019150506154b4565b60ff84111561543857615437614f96565b5b8360020a91508482111561544f5761544e614f96565b5b506154b4565b5060208310610133831016604e8410600b841016171561548a5782820a90508381111561548557615484614f96565b5b6154b4565b6154978484846001615395565b925090508184048111156154ae576154ad614f96565b5b81810290505b9392505050565b60006154c682614228565b91506154d183614228565b92506154fe7fffffffffffffffffffffffffffffffffffffffffffffffffffffffffffffffff84846153e8565b905092915050565b600061551182614228565b915061551c83614228565b9250817fffffffffffffffffffffffffffffffffffffffffffffffffffffffffffffffff048311821515161561555557615554614f96565b5b828202905092915050565b7f4e487b7100000000000000000000000000000000000000000000000000000000600052601260045260246000fd5b600061559a82614228565b91506155a583614228565b9250826155b5576155b4615560565b5b828204905092915050565b600069ffffffffffffffffffff82169050919050565b6155df816155c0565b81146155ea57600080fd5b50565b6000815190506155fc816155d6565b92915050565b6000819050919050565b61561581615602565b811461562057600080fd5b50565b6000815190506156328161560c565b92915050565b600080600080600060a086880312156156545761565361421e565b5b6000615662888289016155ed565b955050602061567388828901615623565b945050604061568488828901615248565b935050606061569588828901615248565b92505060806156a6888289016155ed565b9150509295509295909350565b600060ff82169050919050565b6156c9816156b3565b81146156d457600080fd5b50565b6000815190506156e6816156c0565b92915050565b6000602082840312156157025761570161421e565b5b6000615710848285016156d7565b9150509291505056fea2646970667358221220c1a7dc3943e76ada33f71568586f0c482409fc7acc8fc722e427b18cee86168764736f6c63430008090033",
  "devdoc": {
    "kind": "dev",
    "methods": {
      "owner()": {
        "details": "Returns the address of the current owner."
      },
      "renounceOwnership()": {
        "details": "Leaves the contract without owner. It will not be possible to call `onlyOwner` functions anymore. Can only be called by the current owner. NOTE: Renouncing ownership will leave the contract without an owner, thereby removing any functionality that is only available to the owner."
      },
      "transferOwnership(address)": {
        "details": "Transfers ownership of the contract to a new account (`newOwner`). Can only be called by the current owner."
      }
    },
    "version": 1
  },
  "userdoc": {
    "kind": "user",
    "methods": {},
    "version": 1
  },
  "storageLayout": {
    "storage": [
      {
        "astId": 169,
        "contract": "contracts/Crowdfund.sol:Crowdfund",
        "label": "_status",
        "offset": 0,
        "slot": "0",
        "type": "t_uint256"
      },
      {
        "astId": 53,
        "contract": "contracts/Crowdfund.sol:Crowdfund",
        "label": "_owner",
        "offset": 0,
        "slot": "1",
        "type": "t_address"
      },
      {
        "astId": 331,
        "contract": "contracts/Crowdfund.sol:Crowdfund",
        "label": "WBNB",
        "offset": 0,
        "slot": "2",
        "type": "t_address"
      },
      {
        "astId": 333,
        "contract": "contracts/Crowdfund.sol:Crowdfund",
        "label": "id",
        "offset": 0,
        "slot": "3",
        "type": "t_uint256"
      },
      {
        "astId": 374,
        "contract": "contracts/Crowdfund.sol:Crowdfund",
        "label": "projects",
        "offset": 0,
        "slot": "4",
        "type": "t_mapping(t_uint256,t_struct(Project)362_storage)"
      },
      {
        "astId": 380,
        "contract": "contracts/Crowdfund.sol:Crowdfund",
        "label": "backers",
        "offset": 0,
        "slot": "5",
        "type": "t_mapping(t_uint256,t_array(t_struct(BackerInfo)369_storage)dyn_storage)"
      },
      {
        "astId": 384,
        "contract": "contracts/Crowdfund.sol:Crowdfund",
        "label": "tokenToPriceFeed",
        "offset": 0,
        "slot": "6",
        "type": "t_mapping(t_address,t_address)"
      },
      {
        "astId": 387,
        "contract": "contracts/Crowdfund.sol:Crowdfund",
        "label": "supportedTokensAddress",
        "offset": 0,
        "slot": "7",
        "type": "t_array(t_address)dyn_storage"
      },
      {
        "astId": 391,
        "contract": "contracts/Crowdfund.sol:Crowdfund",
        "label": "allProjects",
        "offset": 0,
        "slot": "8",
        "type": "t_array(t_struct(Project)362_storage)dyn_storage"
      }
    ],
    "types": {
      "t_address": {
        "encoding": "inplace",
        "label": "address",
        "numberOfBytes": "20"
      },
      "t_array(t_address)dyn_storage": {
        "base": "t_address",
        "encoding": "dynamic_array",
        "label": "address[]",
        "numberOfBytes": "32"
      },
      "t_array(t_struct(BackerInfo)369_storage)dyn_storage": {
        "base": "t_struct(BackerInfo)369_storage",
        "encoding": "dynamic_array",
        "label": "struct Crowdfund.BackerInfo[]",
        "numberOfBytes": "32"
      },
      "t_array(t_struct(Project)362_storage)dyn_storage": {
        "base": "t_struct(Project)362_storage",
        "encoding": "dynamic_array",
        "label": "struct Crowdfund.Project[]",
        "numberOfBytes": "32"
      },
      "t_bool": {
        "encoding": "inplace",
        "label": "bool",
        "numberOfBytes": "1"
      },
      "t_mapping(t_address,t_address)": {
        "encoding": "mapping",
        "key": "t_address",
        "label": "mapping(address => address)",
        "numberOfBytes": "32",
        "value": "t_address"
      },
      "t_mapping(t_uint256,t_array(t_struct(BackerInfo)369_storage)dyn_storage)": {
        "encoding": "mapping",
        "key": "t_uint256",
        "label": "mapping(uint256 => struct Crowdfund.BackerInfo[])",
        "numberOfBytes": "32",
        "value": "t_array(t_struct(BackerInfo)369_storage)dyn_storage"
      },
      "t_mapping(t_uint256,t_struct(Project)362_storage)": {
        "encoding": "mapping",
        "key": "t_uint256",
        "label": "mapping(uint256 => struct Crowdfund.Project)",
        "numberOfBytes": "32",
        "value": "t_struct(Project)362_storage"
      },
      "t_string_storage": {
        "encoding": "bytes",
        "label": "string",
        "numberOfBytes": "32"
      },
      "t_struct(BackerInfo)369_storage": {
        "encoding": "inplace",
        "label": "struct Crowdfund.BackerInfo",
        "members": [
          {
            "astId": 364,
            "contract": "contracts/Crowdfund.sol:Crowdfund",
            "label": "backerAddress",
            "offset": 0,
            "slot": "0",
            "type": "t_address"
          },
          {
            "astId": 366,
            "contract": "contracts/Crowdfund.sol:Crowdfund",
            "label": "tokenAddress",
            "offset": 0,
            "slot": "1",
            "type": "t_address"
          },
          {
            "astId": 368,
            "contract": "contracts/Crowdfund.sol:Crowdfund",
            "label": "amount",
            "offset": 0,
            "slot": "2",
            "type": "t_uint256"
          }
        ],
        "numberOfBytes": "96"
      },
      "t_struct(Project)362_storage": {
        "encoding": "inplace",
        "label": "struct Crowdfund.Project",
        "members": [
          {
            "astId": 339,
            "contract": "contracts/Crowdfund.sol:Crowdfund",
            "label": "owner",
            "offset": 0,
            "slot": "0",
            "type": "t_address"
          },
          {
            "astId": 341,
            "contract": "contracts/Crowdfund.sol:Crowdfund",
            "label": "id",
            "offset": 0,
            "slot": "1",
            "type": "t_uint256"
          },
          {
            "astId": 343,
            "contract": "contracts/Crowdfund.sol:Crowdfund",
            "label": "startDay",
            "offset": 0,
            "slot": "2",
            "type": "t_uint256"
          },
          {
            "astId": 345,
            "contract": "contracts/Crowdfund.sol:Crowdfund",
            "label": "endDay",
            "offset": 0,
            "slot": "3",
            "type": "t_uint256"
          },
          {
            "astId": 347,
            "contract": "contracts/Crowdfund.sol:Crowdfund",
            "label": "goal",
            "offset": 0,
            "slot": "4",
            "type": "t_uint256"
          },
          {
            "astId": 349,
            "contract": "contracts/Crowdfund.sol:Crowdfund",
            "label": "projectTitle",
            "offset": 0,
            "slot": "5",
            "type": "t_string_storage"
          },
          {
            "astId": 351,
            "contract": "contracts/Crowdfund.sol:Crowdfund",
            "label": "projectSubtitle",
            "offset": 0,
            "slot": "6",
            "type": "t_string_storage"
          },
          {
            "astId": 353,
            "contract": "contracts/Crowdfund.sol:Crowdfund",
            "label": "projectNote",
            "offset": 0,
            "slot": "7",
            "type": "t_string_storage"
          },
          {
            "astId": 355,
            "contract": "contracts/Crowdfund.sol:Crowdfund",
            "label": "projectImageUrl",
            "offset": 0,
            "slot": "8",
            "type": "t_string_storage"
          },
          {
            "astId": 357,
            "contract": "contracts/Crowdfund.sol:Crowdfund",
            "label": "isFinalized",
            "offset": 0,
            "slot": "9",
            "type": "t_bool"
          },
          {
            "astId": 359,
            "contract": "contracts/Crowdfund.sol:Crowdfund",
            "label": "isClaimed",
            "offset": 1,
            "slot": "9",
            "type": "t_bool"
          },
          {
            "astId": 361,
            "contract": "contracts/Crowdfund.sol:Crowdfund",
            "label": "isRefunded",
            "offset": 2,
            "slot": "9",
            "type": "t_bool"
          }
        ],
        "numberOfBytes": "320"
      },
      "t_uint256": {
        "encoding": "inplace",
        "label": "uint256",
        "numberOfBytes": "32"
      }
    }
  }
}